:020000040800F2
:1000000000000220AD050008F9050008F905000808
:10001000F9050008F9050008F905000800000000CE
:10002000000000000000000000000000F9050008CA
:10003000F905000800000000F9050008F9050008AE
:10004000F9050008F9050008F9050008F905000898
:10005000F9050008F9050008F9050008F905000888
:10006000F9050008F9050008F9050008F905000878
:10007000F9050008F9050008F9050008F905000868
:10008000F9050008F9050008F9050008000000005E
:10009000000000000000000000000000F90500085A
:1000A000F9050008F9050008F9050008F905000838
:1000B000F9050008F9050008F90500086D25000894
:1000C000FD250008F9050008F9050008F9050008F4
:1000D000F9050008F9050008F9050008000000000E
:1000E000F9050008F9050008F905000800000000FE
:1000F000000000000000000000000000F9050008FA
:1001000000000000F9050008F9050008F9050008DD
:1001100000000000000000000000000000000000DF
:10012000F9050008F9050008F9050008F9050008B7
:10013000F9050008000000000000000000000000B9
:10014000000000000000000000000000F9050008A9
:10015000F9050008F9050008F9050008F905000887
:10016000F9050008F9050008000000000000000083
:10017000000000000000000000000000000000007F
:1001800000000000F9050008000000000000000069
:10019000F9050008F905000810B5054C237833B9B6
:1001A000044B13B10448AFF300800123237010BD4A
:1001B0001C0200200000000030840008084B10B52D
:1001C0001BB108480849AFF300800848036803B929
:1001D00010BD074B002BFBD0BDE81040184700BFF7
:1001E00000000000308400082002002018020020D7
:1001F00000000000154B002B08BF134B9D46A3F5D4
:10020000803A00218B460F461348144A121A05F013
:1002100003FF0F4B002B00D098470E4B002B00D054
:1002200098470020002104000D000D48002802D04E
:100230000C48AFF3008005F09FFE2000290000F07D
:1002400085F905F053FC00BF000008000000022003
:1002500000000000000000001C020020980900209F
:10026000000000000000000000B585B072B6052156
:10027000684603F057FF10E0039B019A1A6096202E
:1002800003F0E0FF9DF90030013310D0019B039A89
:100290001B041360962003F0D5FF9DF90030013355
:1002A000EAD106480649342203F01EFFE4E703487A
:1002B0000349342203F018FFE8E700BFD8710008B3
:1002C000F07100080F4A30B493689468B4F1006F7D
:1002D0001A4604D0103030BC42F8201070470A4A49
:1002E00003F5CC7553F8044B42F8044FAB42F9D1F7
:1002F0004FF00052034B10309A6030BC42F820108F
:10030000704700BF00ED00E0FCFFFF1F70B50F4C11
:100310002368DA68910715D4DA68520709D56FF0B7
:1003200004020B4E1A615D6A3368EB1AB3F57A7FEB
:1003300000D270BD02F08AF92368356005F57A7540
:100340009D6370BD03F06CFF2368E5E73C09002066
:1003500038020020244B30B51A6C244C42F00802BD
:100360001A641A6C83B002F008020192019A1A6AA8
:1003700042F008021A621A6A22F008021A6200F0B9
:100380003DF91B4B1B4A1B681B492160A2FB032341
:100390009B0C0025013B4FF0FF3220466360E2607A
:1003A0002561A560656101F0E5F832201349FFF78A
:1003B00089FF134B4FF480225A602946204601F0F2
:1003C0000FF92046042101F00BF923680D495A6A00
:1003D0000A6002F57A729A63DA68284642F00402EB
:1003E000DA6003B030BD00BF003802403C09002095
:1003F000A001002083DE1B43000C00400D03000819
:1004000000E100E03802002008B500F0F7F8BDE890
:10041000084002F0F9B800BF02480221032203F0AD
:100420003DBC00BF7809002002280ADDC31E074A30
:1004300052F82300002142F8231020B103685B68C2
:100440001847002070474FF0FF3070473C020020F3
:10045000022812DC0E4B1B6870B50C4616460BB911
:10046000FFF7DAFFA51936B114F8011B094803F0AC
:1004700079FDAC42F8D1304670BD0338064B53F8D5
:10048000200010B103681B6818474FF0FF30704719
:10049000E4060020780900203C02002002280DDC40
:1004A0000C4B1B6810B50C460BB9FFF7B5FF0A489B
:1004B00003F04AFD01232070184610BD0338074B96
:1004C00053F8200010B103689B6818474FF0FF33C2
:1004D00018467047E4060020780900203C020020FE
:1004E000022807DD0338064B53F8200020B10368CB
:1004F000DB681847012070474FF0FF30704700BF9E
:100500003C020020022807DD0338064B53F8200088
:1005100020B103681B691847002070474FF0FF3077
:10052000704700BF3C020020022808B504D84FF4F1
:1005300000534B60002008BD05F0D2FA0923036088
:100540004FF0FF3008BD00BF704700BF08B5FFF790
:100550005BFFFFF7F9FFBDE8084001F0D5BD00BF24
:10056000074A13681844EFF30881884202D21060EA
:1005700018467047034B0C221A604FF0FF3070474B
:100580009C01002094090020074C08B5236805460B
:10059000986805F06DFB2368D86805F069FB05B91C
:1005A000FEE7FFF761FEFBE708020020DFF830D02E
:1005B000002103E00B4B5B58435004310A480B4BBE
:1005C00042189A42F6D30A4A02E0002342F8043B5A
:1005D000084B9A42F9D300F0EDF8FFF70BFE704795
:1005E000000002203C840008980100201C0200202A
:1005F0001C02002098090020FEE7000018488368CC
:1006000003F00C03042B29D0082B0AD0154B144AF5
:10061000154892681549C2F30312825CD3400B60FF
:1006200070474368416813F4800F436818BF10484F
:1006300001F03F020CBF0B49B0FBF2F1C3F388138A
:1006400008BFB1FBF2F101FB03F2054B5B68C3F39A
:10065000014301335B00B2FBF3F3D8E7044BD6E769
:10066000003802400024F40064720008A001002059
:1006700000127A00204B214A196C30B541F08051AC
:1006800019641B6C95B003F080530193019B1368B0
:1006900023F4404343F400431360136803F44043DE
:1006A00002930123029A089300B105230993C02104
:1006B0000423082202244FF4800508A81093129303
:1006C0000E940F951191139201F0DAFF034610B1C9
:1006D000002015B030BD4FF480520F2503A8032130
:1006E0000494059307930395069202F0DBF9B0FAA0
:1006F00080F0400915B030BD003802400070004065
:10070000224B234A196CF0B541F0805119641B6CDF
:1007100095B003F080530193019B136823F4404389
:1007200043F400431360136803F4404302934FF013
:10073000010E08230024C0210422032610270225CD
:1007400008A810931393DDF808C00896CDF82CE0A4
:1007500009940F940C970E951191129201F090FF4D
:10076000034610B1204615B0F0BD4FF4805231461B
:100770000F2403A80495059307930394069202F0AF
:1007800091F9B0FA80F0400915B0F0BD0038024090
:100790000070004008B50120FFF76CFF00B108BDF4
:1007A000FFF768FF0028FAD1FFF7AAFF0028F6D16B
:1007B000FEE700BF174A1848D2F8883070B543F4F6
:1007C0007003164CC2F888302368154E154D002171
:1007D00043F001032360A160236823F0847323F4B2
:1007E00080332360666023684FF0006623F4802323
:1007F0002360E1609660056001F006FFFFF7CAFF25
:10080000236A43F008032362236A23F00803236268
:1008100070BD00BF00ED00E0A001002000380240E4
:10082000103000240024F40080B582B000AF78605E
:100830007B68064A1A600023002B02D0786803F018
:100840004EFE7B6818460837BD4680BD48730008D9
:1008500080B582B000AF78607868FFF7E5FF786810
:1008600003F03DFE7B6818460837BD4680BD00BFDB
:1008700080B582B000AF78607B68084A1A607B68F8
:100880001846FFF7D1FF0023002B02D0786803F051
:1008900026FE7B6818460837BD4680BD38730008C1
:1008A00080B582B000AF78607868FFF7E1FF7868C4
:1008B00003F015FE7B6818460837BD4680BD00BFB3
:1008C00080B588B002AFF8607B600B46FB721346C0
:1008D000BB72F96897F90B2097F90A300846114660
:1008E0001A4603F0A3FBFB68164A1A60FB685433F0
:1008F0001846796802F044FCFB6803F164013B6A26
:100900007A6802FB03F30846194602F039FCFA68DC
:100910000D4B3B6100237B61002300931046F96877
:1009200007F110030CCB00F0D9F9FB687A685A671D
:10093000FB683A6A9A6700BFFB6818461837BD46DD
:1009400080BD00BF08730008C90B000880B582B0E5
:1009500000AF78607B68144A1A607B6818460021F3
:10096000002203F0A9FB7B6818460021012203F056
:10097000A3FB00BF7B686433184602F019FC7B6858
:100980005433184602F014FC7B681846FFF770FFDA
:100990000023002B02D0786803F0A1FD7B68184685
:1009A0000837BD4680BD00BF0873000880B582B01F
:1009B00000AF78607868FFF7C9FF786803F08FFDB3
:1009C0007B6818460837BD4680BD00BF80B582B041
:1009D00000AF78607B685433184600F0B5F90346E1
:1009E00018460837BD4680BD80B483B000AF78603C
:1009F000012318460C37BD465DF8047B704700BFE5
:100A000080B582B000AF78607B685433184600F040
:100A1000AFF9034618460837BD4680BD80B582B0A1
:100A200000AF786039607B6803F164023B68DBB239
:100A30001046194600F0A8F9786800F021F93B68E3
:100A400018460837BD4680BD80B584B000AF7860D9
:100A500039603B68002B1FD03B68FB600AE07B6875
:100A600003F16401FB685A1CFA601B7808461946BA
:100A700000F08AF9FB681B78002BF0D17B686433A7
:100A800018460A2100F080F9786800F0F9F8FA6851
:100A90003B68D31A013300E0002318461037BD46E7
:100AA00080BD00BF0EB42DE9F04189B002AF78607F
:100AB000694688467968496F4E1E7E61314601312C
:100AC00008464FF00001CD0045EA5075C40031469C
:100AD000013108464FF00001CB0043EA5073C200D9
:100AE000334601330733DB08DB00ADEB030D02AB0C
:100AF00000333B613A697B685B6F104600211A4600
:100B000005F08AFA0023FB6007F13803BB603B69FC
:100B10001846796BBA6806F029F8F8607B685B6F55
:100B20001A46FB689A420BDA7B685C6FFB6800939D
:100B30000C480D495D22234603F0E2FA002308E049
:100B40003A69FB68786811461A4600F00FF8F860B9
:100B5000FB68C54618461C37BD46BDE8F04103B0EA
:100B6000704700BF74720008B072000880B586B08C
:100B700000AFF860B9607A60BB68002B1FD07B685B
:100B8000002B1CD0BB687B617A697B6813443B6196
:100B90000AE0FB6803F164017B695A1C7A611B78E7
:100BA0000846194600F0F0F87A693B699A42F0D19C
:100BB000F86800F065F87A69BB68D31A00E0002392
:100BC00018461837BD4680BD90B583B000AF786039
:100BD0007B680433184603F0D3F90346002B14BF97
:100BE00001230023DBB2002B0DD07B6803F15404FA
:100BF0007B680433184603F0A7F90346DBB22046AE
:100C0000194600F0C1F800BF0C37BD4690BD00BFCB
:100C100090B583B000AF786020E07B6864331846FD
:100C200000F092F80346002B14BF01230023DBB22F
:100C3000002B0CD07B681C1D7B686433184600F0C9
:100C4000B3F803462046194603F08CF906E07B68AA
:100C500018460021012203F02FFA0CE07B680433D0
:100C6000184603F097F90346002B14BF0123002315
:100C7000DBB2002BD1D100BF0C37BD4690BD00BF09
:100C800080B586B002AF78607B680433184603F005
:100C900081F90346002B14BF01230023DBB2002B94
:100CA00016D07B6818460021012203F005FA786807
:100CB000FFF7AEFF7A68084BBB600023FB6001239F
:100CC00000931046796807F108030CCB00F006F892
:100CD00000BF1037BD4680BD110C000880B584B040
:100CE00000AFF860B960394681E80C003B68002B22
:100CF00004D17B6803F00103002B19D0BB68002BE3
:100D000016D03A7E13465B001344DB002033FA68AA
:100D100013441846B9683B460CCB00F067F8FB68F3
:100D20001A1D3B7E10461946012203F0B3F807E076
:100D3000FB681A1D3B7E10461946002203F0AAF8F4
:100D40001037BD4680BD00BF80B483B000AF78606F
:100D50007B685A687B689B689A4214BF0123002312
:100D6000DBB218460C37BD465DF8047B704700BF08
:100D700080B582B000AF7860786800F015F803465F
:100D800018460837BD4680BD80B582B000AF786098
:100D90000B46FB70FB787868194600F045F87B68D5
:100DA00018460837BD4680BD80B485B000AF786076
:100DB0007B681A687B689B68581C79688860134454
:100DC0001B78FB737B689B687A68D268013AB3FB37
:100DD000F2F102FB01F29A1A7B689A60FB7B1846DB
:100DE0001437BD465DF8047B704700BF80B485B002
:100DF00000AFF860B960394681E80C00FB68BA685A
:100E00001A60FB6804331A463B4693E8030082E805
:100E10000300FB68034A5A611437BD465DF8047B42
:100E2000704700BF6D0E000880B483B000AF7860DB
:100E30000B46FB707B681A687B685B68581C796896
:100E400048601344FA781A707B685B687A68D268E5
:100E5000013AB3FBF2F102FB01F29A1A7B685A6085
:100E600000BF0C37BD465DF8047B704780B584B089
:100E700000AF786039607B68FB603B68BB60BB6833
:100E80005B6803F00103002B02D1BB681B680AE01A
:100E9000BB685B685B101A46FB6813441B68BA6842
:100EA000126813441B68BA68526852101146FA68F7
:100EB0000A44104698471037BD4680BD80B584B0BF
:100EC00000AF78600023FB600023BB607B68002BD1
:100ED00001D10123C8E07B6893F83D30DBB2002BE1
:100EE00006D17B68002283F83C20786800F0C6F8C1
:100EF0007B68242283F83D207B681B687A6812682F
:100F0000126822F001021A6001F06AFFB860BB6843
:100F1000574AA2FB03239B0CFB607B681B68FA68A3
:100F20005A607B681A687B685B6852498B4202D8BA
:100F3000FB68013309E0FB684FF4967101FB03F392
:100F40004D49A1FB03139B09013313627B681968A8
:100F50007B685B68474A934212D87B685B685B009A
:100F6000BA68B2FBF3F3C3F30B03032B06D97B6818
:100F70005B685B00BA68B2FBF3F345E0042343E02F
:100F80007B689B68002B0FD17B685A6813465B0017
:100F90001344BA68B2FBF3F3C3F30B03002B0CBF8B
:100FA00001230023DBB210E07B685A6813469B00E4
:100FB00013449A001344BA68B2FBF3F3C3F30B0370
:100FC000002B0CBF01230023DBB2002B01D0012337
:100FD0001AE07B689B68002B0AD17B685A6813462D
:100FE0005B001344BA68B2FBF3F343F400430BE035
:100FF0007B685A6813469B0013449A001344BA68EE
:10100000B2FBF3F343F44043CB617B681B687A681F
:10101000D1697A68126A0A431A607B681B687A6829
:1010200011697A68D2680A439A607B681B687A689B
:1010300051697A6892690A43DA607B681B687A684A
:101040001268126842F001021A607B6800221A647A
:101050007B68202283F83D207B6800221A637B682E
:10106000002283F83E20002318461037BD4680BD7D
:1010700083DE1B43A0860100D34D621080B483B091
:1010800000AF78600C37BD465DF8047B704700BF49
:1010900080B582B000AF78607B68002B01D101235E
:1010A0003FE07B6893F83930DBB2002B06D17B68D8
:1010B000002283F83820786800F038F87B68242212
:1010C00083F839207B681B687A681268D26822F43A
:1010D0000052DA60786800F033F87B681B687A6841
:1010E0001268126922F490421A617B681B687A6860
:1010F0001268526922F02A025A617B681B687A687A
:101100001268D26842F40052DA607B680022DA6327
:101110007B68202283F839207B68202283F83A20DC
:10112000002318460837BD4680BD00BF80B483B099
:1011300000AF78600C37BD465DF8047B704700BF98
:10114000F0B585B000AF78600023FB607B681B685A
:101150001B69FB60FB6823F44053FB607B68DB6822
:10116000FA681343FB607B681B68FA681A617B6846
:101170001B68DB68FB60FB6823F4164323F00C0359
:10118000FB607B689A687B681B691A437B685B69B4
:101190001A437B68DB691343FA681343FB607B687F
:1011A0001B68FA68DA607B681B685B69FB60FB6838
:1011B00023F44073FB607B689B69FA681343FB6010
:1011C0007B681B68FA685A617B68DB69B3F5004F7E
:1011D00040F0E4807B681B68AB4A934204D07B6894
:1011E0001B68AA4A93426CD17B681C6801F01AFE06
:1011F000024613469B0013449A001A447B685B68BE
:101200005B00B2FBF3F3A24AA2FB03235B091D01BF
:1012100001F008FE024613469B0013449A001A444C
:101220007B685B685B00B2FBF3F601F0FBFD0246F6
:1012300013469B0013449A001A447B685B685B006A
:10124000B2FBF3F3924AA2FB03235B09642202FB85
:1012500003F3F31ADB0032338D4AA2FB03235B094D
:1012600003F0F8035B001D4401F0DCFD0246134669
:101270009B0013449A001A447B685B685B00B2FBD6
:10128000F3F601F0CFFD024613469B0013449A008B
:101290001A447B685B685B00B2FBF3F37C4AA2FBF9
:1012A00003235B09642202FB03F3F31ADB003233EE
:1012B000774AA2FB03235B0903F007032B44A360D7
:1012C00053E17B681C6801F08BFD024613469B00CE
:1012D00013449A001A447B685B685B00B2FBF3F32B
:1012E0006B4AA2FB03235B091D0101F079FD024655
:1012F00013469B0013449A001A447B685B685B00AA
:10130000B2FBF3F601F06CFD024613469B0013445A
:101310009A001A447B685B685B00B2FBF3F35C4A9B
:10132000A2FB03235B09642202FB03F3F31ADB0035
:101330003233574AA2FB03235B0903F0F8035B0037
:101340001D4401F04DFD024613469B0013449A00D4
:101350001A447B685B685B00B2FBF3F601F040FD6A
:10136000024613469B0013449A001A447B685B684C
:101370005B00B2FBF3F3464AA2FB03235B09642242
:1013800002FB03F3F31ADB003233414AA2FB0323CF
:101390005B0903F007032B44A360E6E07B681B684E
:1013A000394A934204D07B681B68384A934271D112
:1013B0007B681C6801F036FD024613469B0013440F
:1013C0009A001A447B685B689B00B2FBF3F3304AD7
:1013D000A2FB03235B091D0101F024FD0246134615
:1013E0009B0013449A001A447B685B689B00B2FB25
:1013F000F3F601F017FD024613469B0013449A00D2
:101400001A447B685B689B00B2FBF3F3204AA2FBA3
:1014100003235B09642202FB03F3F31A1B0132333B
:101420001B4AA2FB03235B0903F0F0031D4401F0F8
:10143000F9FC024613469B0013449A001A447B6849
:101440005B689B00B2FBF3F601F0ECFC024613462E
:101450009B0013449A001A447B685B689B00B2FBB4
:10146000F3F30B4AA2FB03235B09642202FB03F3A1
:10147000F31A1B013233064AA2FB03235B0903F074
:101480000F032B44A36070E00010014000140140E2
:101490001F85EB517B681C6801F0A2FC02461346D5
:1014A0009B0013449A001A447B685B689B00B2FB64
:1014B000F3F32F4AA2FB03235B091D0101F090FC0B
:1014C000024613469B0013449A001A447B685B68EB
:1014D0009B00B2FBF3F601F083FC024613469B002F
:1014E00013449A001A447B685B689B00B2FBF3F3D9
:1014F0001F4AA2FB03235B09642202FB03F3F31AD6
:101500001B0132331A4AA2FB03235B0903F0F003E9
:101510001D4401F065FC024613469B0013449A00EB
:101520001A447B685B689B00B2FBF3F601F058FC41
:10153000024613469B0013449A001A447B685B687A
:101540009B00B2FBF3F30A4AA2FB03235B0964226C
:1015500002FB03F3F31A1B013233054AA2FB0323F8
:101560005B0903F00F032B44A3601437BD46F0BDA5
:101570001F85EB5180B582B000AF78607B68002B8F
:1015800001D101231DE07B6893F83930DBB2002BD9
:1015900006D17B68002283F83820786800F016F8BE
:1015A0007B68022283F839207B681A687B680433E1
:1015B0001046194600F03CF87B68012283F8392078
:1015C000002318460837BD4680BD00BF80B483B0F5
:1015D00000AF78600C37BD465DF8047B704700BFF4
:1015E00080B582B000AF786039607B681B681846B0
:1015F0003968012200F0A0F87B681B680B4A93420F
:1016000007D17B681B687A681268526C42F400420A
:101610005A647B681B687A681268126842F001029B
:101620001A60002318460837BD4680BD00000140FF
:1016300080B485B000AF786039600023FB607B68C0
:101640001B68FB607B68354A93420FD07B68B3F11F
:10165000804F0BD07B68324A934207D07B68314A77
:10166000934203D07B68304A934201D1012300E0CA
:101670000023002B08D0FB6823F07003FB603B685D
:101680005B68FA681343FB607B68244A93421BD073
:101690007B68B3F1804F17D07B68214A934213D007
:1016A0007B68204A93420FD07B681F4A93420BD03D
:1016B0007B681E4A934207D07B681D4A934203D041
:1016C0007B681C4A934201D1012300E00023002BD8
:1016D00008D0FB6823F44073FB603B68DB68FA6862
:1016E0001343FB607B68FA681A603B689A687B6802
:1016F000DA623B681A687B689A627B68074A9342A1
:1017000003D13B681A697B681A637B6801225A61BE
:101710001437BD465DF8047B704700BF00000140F0
:101720000004004000080040000C00400040014060
:10173000004401400048014080B487B000AFF86029
:10174000B9607A6000237B61BB68012202FA03F36F
:101750007B61FB681A6A7B69DB431A40FB681A628B
:10176000FB681A6ABB68796801FA03F31A43FB68DD
:101770001A621C37BD465DF8047B704780B582B0A5
:1017800000AF78607B685A687B681B681046002150
:101790001A4604F041FC7B6800221A610837BD46F6
:1017A00080BD00BF80B584B000AFF860B9607A60DA
:1017B0003B60FB68BA681A60FB687A685A60FB682D
:1017C0003A689A60F868FFF7D9FFFB680022DA6090
:1017D000FB6800221A751037BD4680BD80B584B005
:1017E00000AF78600B46FB70FB78FB737B681B7D5A
:1017F000012B06D0022B24D0002B38D17B6801228C
:101800001A7597F90F30002B1AD07B685B687A68DD
:1018100012691344FA7B1A7097F90F300D2B09D116
:101820007B685B687A681269134400221A707B68CF
:1018300002221A757B681B695A1C7B681A6116E0C4
:1018400015E07B6899687B685A687B681B69084665
:1018500011461A4604F0D5FB7B6800221A757B6896
:101860001B69BB607868FFF789FFBB6800E0002355
:1018700018461037BD4680BD80B584B000AFF86013
:10188000B9607A603B60BB680348F9681A4604F0A7
:1018900039FF1037BD4680BD507300080FB480B5C6
:1018A00000AFB86804F02EFFBD46BDE8804004B02C
:1018B000704700BF80B485B000AF786039601FE02A
:1018C0003B68013B7A681A443B68013B79680B44EA
:1018D0001B78FB730E4B196897F90F3001330B44DB
:1018E0001B7803F00303012B03D197F90F3020334A
:1018F00001E097F90F30DBB213703B68013B3B60AE
:101900003B68002BDCD11437BD465DF8047B704783
:10191000A401002080B584B000AF78603960002356
:10192000FB60386805F00BF8B86017E07A68FB6870
:1019300013441A783B681B789A420CD17A68FB688A
:10194000134418463968BA6805F001F80346002BBD
:1019500001D1012309E0FB680133FB607A68FB6871
:1019600013441B78002BE1D1002318461037BD46E5
:1019700080BD00BF80B582B000AF7860234B1B787C
:1019800003F00203002B18D1204B1B7803F0010356
:10199000002B03D01D4B1B6A002B0ED11B4B1B6E63
:1019A000002B08D0194B1B6E78681946FFF7B2FF61
:1019B0000346002B01D0012300E00023002B20D0A0
:1019C00002F024FC0246114B1A63104B1B6BB3F15F
:1019D000FF3F0AD10E4B1B689B6818460D490E4A03
:1019E00004F002FA012004F081F8084B5B6C002B34
:1019F00005D0064B5B6C054A926C10469847012354
:101A000000E0002318460837BD4680BD8C05002045
:101A1000080200208073000894730008B0B586B0F7
:101A200002AF7860396002F0F1FB0246444B5A6322
:101A3000434B5B6BB3F1FF3F0AD1424B1B689B6882
:101A400018464149414A04F0CFF9012004F04EF80C
:101A50003B4BDB6C002B06D0394B1B6DFB60384BCE
:101A6000DB6CF86898473B68002B03DA786800F075
:101A7000A5F90CE03B68002B03DD786800F004FA60
:101A800005E03B68002B02D1786800F067F92C4B29
:101A90009B6901332A4A9361294B5B6D0133284AC4
:101AA0005365274B5B78002B2AD0264B1B689D681B
:101AB000234B5A6B224B1B6BD41A214B5A6B204B76
:101AC0001B6BD31A184603F019FD02460B4610464D
:101AD00019464FF000021E4B03F0B0FE02460B46C3
:101AE000CDE9002328461B49224604F07DF9154B19
:101AF0001B689B6818480121022204F02DFA15E0AA
:101B00000F4B5B6D0E4A926DB3FBF2F102FB01F2DB
:101B10009B1A002B0AD10B4B1B689B680E480121B6
:101B2000022204F019FA064B00225A65054B1B6885
:101B30009B68184604F09CF81037BD46B0BD00BF46
:101B40008C0500200802002080730008B473000890
:101B500000005940D4730008EC730008B0B584B09D
:101B600004AF254B9B69002B43D0244B1B6898681E
:101B7000214B9D69204B9B69012B01D1204C00E03A
:101B8000204C1D4BD9691C4B1A6A1B4B5B6A009198
:101B9000019202931C492A46234604F025F9174B6B
:101BA0001B689D68144BDA6A134B9B6AD41A124B5C
:101BB000DA6A114B9B6AD31A184603F09FFC02465F
:101BC0000B46104619464FF00002104B03F036FE4C
:101BD00002460B46CDE9002328460D49224604F073
:101BE00003F9064B1B689B680A480121022204F096
:101BF000B3F9BD46B0BD00BF8C050020080200202F
:101C0000F0730008F4730008F873000800005940EE
:101C1000D4730008EC73000880B500AF184B0022A5
:101C20005A64174B00229A64154B0022DA64144B55
:101C300000221A65124B9A68114BDB691344104A53
:101C400093600F4BDA680E4B1B6A13440C4AD36047
:101C50000B4B1A690A4B5B6A1344094A1361084B20
:101C60005A68074B9B691344054A53600548002195
:101C7000202204F0D1F9024B00225A6580BD00BF3A
:101C80008C050020A405002080B582B000AF7860EC
:101C900039602C4BDB6D002B0AD02A4BDB6D38688A
:101CA0001946FFF737FE0346002B01D1012300E060
:101CB0000023002B00D042E0224B1B7803F00103ED
:101CC000002B04D01F4BDB68002B00D037E0FFF760
:101CD000A3FF1D4B1B689B6818461C493A6804F01B
:101CE00083F802F093FA0246164B9A62154B9B6AF0
:101CF000B3F1FF3F0AD1144B1B689B681846144987
:101D0000144A04F071F8012003F0F0FE7B68984754
:101D100002F07CFA02460B4BDA620A4BDB6AB3F143
:101D2000FF3F0AD1084B1B689B68184608490A4ABE
:101D300004F05AF8012003F0D9FEFFF70FFF08372F
:101D4000BD4680BD8C0500200802002028740008D4
:101D500080730008387400085874000880B582B099
:101D600000AF7860114B5B78002B10D0104B1B68D4
:101D70009A680E4B1B6C002B02D00C4B1B6C00E0C6
:101D80000C4B10460C497A6804F02EF806E0084B1C
:101D90001B689B682E20194604F05CF8034BDB6936
:101DA0000133024AD3610837BD4680BD8C0500204F
:101DB00008020020F07300087874000890B585B020
:101DC00002AF78602A4B5B78002B17D0294B1B6839
:101DD0009968274B1B6C002B02D0254B1C6C00E034
:101DE000254C234B9A6B224BDB6B009201930846E8
:101DF00022497A68234603F0F7FF31E01D4B1B6848
:101E00009B684620194604F025F8194B5B6D013399
:101E1000174A5365164B5B6D002B0AD0154B1B6898
:101E20009B6817480121022204F096F8104B00220B
:101E30005A65104B1B6899680D4B1B6C002B02D028
:101E40000B4B1C6C00E00C4C094B9A6B084BDB6B8A
:101E50000092019308460B497A68234603F0C4FFB9
:101E6000034B1B6A0133024A13620C37BD4690BD17
:101E70008C05002008020020F0730008847400081C
:101E8000EC7300089874000880B582B000AF7860E9
:101E9000114B5B78002B10D0104B1B689A680E4BCF
:101EA0001B6C002B02D00C4B1B6C00E00C4B104643
:101EB0000C497A6803F098FF06E0084B1B689B68A2
:101EC0007320194603F0C6FF034B5B6A0133024AD5
:101ED00053620837BD4680BD8C05002008020020F3
:101EE000F0730008B074000880B582B000AF78606D
:101EF000054B1B689B68184604497A6803F074FF19
:101F00000837BD4680BD00BF0802002008750008E4
:101F100080B584B000AF786039600023FB60012396
:101F2000FB60C4E0FB689B003A6813441B6864488C
:101F30001946022204F00BFD0346002B18D1FB6862
:101F40005A1C7B689A4207DB3B681B681846FFF700
:101F5000CBFF012003F0CAFDFB6801339B003A6808
:101F600013441B68574A1366FB680133FB609BE010
:101F7000FB689B003A6813441B68534819460222C9
:101F800004F0E5FC0346002B18D1FB685A1C7B6863
:101F90009A4207DB3B681B681846FFF7A5FF012044
:101FA00003F0A4FDFB6801339B003A6813441B68EF
:101FB000444AD365FB680133FB6075E0FB689B0016
:101FC0003A6813441B6841481946022204F0BFFCDA
:101FD0000346002B07D13B4B1B7843F00103DAB2D9
:101FE000384B1A7060E0FB689B003A6813441B682A
:101FF00037481946022204F0AAFC0346002B06D1FA
:10200000304B5B780133DAB22E4B5A704CE0FB68F0
:102010009B003A6813441B682E481946022204F0BC
:1020200096FC0346002B07D1264B1B7843F0020396
:10203000DAB2244B1A7037E0FB689B003A6813440D
:102040001B6825481946022204F081FC0346002B38
:1020500007D13B681B681846FFF746FF002003F0D6
:1020600045FDFB689B003A6813441B681B481946F2
:10207000022204F06CFC0346002B00D11CE0184B3C
:102080001B689968FB689B003A6813441B68084604
:1020900014491A4603F0A8FE3B681B681846FFF770
:1020A00023FF012003F022FDFB680133FB60FA6887
:1020B0007B689A42FFF636AF1037BD4680BD00BF41
:1020C000347600088C050020387600083C7600083D
:1020D0004076000844760008487600084C760008F0
:1020E000080200205076000880B400AF054BDB6882
:1020F000002B0CBF01230023DBB21846BD465DF860
:10210000047B70478C050020B0B584B002AF7860C6
:10211000396057484FF4E13101F0C6FF55484FF49C
:10212000E13101F0C1FF54480021C82203F074FFDF
:10213000514B48229A6502F069F802464E4B5A66A6
:102140004D4B5B6EB3F1FF3F0AD14C4B1B689B6854
:1021500018464B494B4A03F047FE012003F0C6FCEA
:1021600078683968FFF7D4FE434B5B780133DAB205
:10217000414B5A7044484549FFF786FD3E4B1B785A
:1021800003F00203002B67D1FFF746FD02F03EF893
:102190000246394B9A66384B9B6EB3F1FF3F0AD12A
:1021A000364B1B689B6818463549394A03F01CFEBC
:1021B000012003F09BFC314B1B6899682E4B5A6839
:1021C0002D4B5B68012B01D1324B00E0324B0846AE
:1021D000324903F009FE294B1B689D68264B9A6E15
:1021E000254B5B6ED41A244B9A6E234B5B6ED31A2D
:1021F000184603F083F902460B46104619464FF085
:102200000002274B03F01AFB02460B46CDE90023E0
:1022100028462449224603F0E7FD184B1B689968BD
:10222000154B5A69144B5B69012B01D1194B00E026
:10223000194B08461C4903F0D7FD104B1B689968E1
:102240000D4B9A680C4BDC680B4B1B6900930846DE
:102250001649234603F0C8FDFFF746FF0346002B4F
:102260000CBF01230023DBB218460837BD46B0BDC2
:102270002C040020B00300208C0500200802002060
:10228000807300086C760008013900088076000829
:1022900098760008F0730008F4730008AC76000824
:1022A00000005940D4730008C0760008D4760008B6
:1022B00080B584B002AF786039607B68012B24D18F
:1022C0003B684FF6FF7293421FD104230093002313
:1022D00001930F4809210A224FF40073FEF7F0FA28
:1022E0000B480C490C4A02F0F5F80A23009300232E
:1022F00001930A48022103224FF40063FEF7E0FA3B
:1023000006480449044A02F0E5F80837BD4680BD96
:10231000B00300204D090008980100202C04002083
:1023200080B500AF01204FF6FF71FFF7C1FF80BD00
:1023300080B485B000AFF860B9607A60FA687B68F5
:102340009A4206DD7A68BB68D31ADB43FA68134405
:10235000FB60FA68BB689A4206DA7A68BB68D31AEF
:102360000133FA681344FB60FB6818461437BD4616
:102370005DF8047B704700BF80B586B000AF734B3B
:102380007B6100233B617B691B689B6903F004034D
:10239000002B40F0A1806E4B1B68002B02D0042B59
:1023A00053D0D0E07B691B685B6903F00203002B0C
:1023B0000DD0684B01221A600023FB607B691B680B
:1023C0005B69FB607B691B689B69FB60FB687B69E1
:1023D0001B685B6903F04003002B1BD05D4B1B683F
:1023E000002B17D05C4B1B693B613B69002B02DB68
:1023F0003B690C2B05DD5948382100220023FFF7EB
:102400003BFA574A3B691360514B04221A60514B07
:1024100000221A607B691B685B6903F01003002BC4
:1024200012D04B4B00221A600023BB607B691B68F3
:102430005B69BB607B691B687A691268126842F04D
:1024400001021A60BB6846E045E07B691B685B6976
:1024500003F04003002B23D0414B1B68002B03DB10
:102460003F4B1B680C2B05DD3C4845210022002317
:10247000FFF702FA3A4B1B68374A1269D1B2394A60
:10248000D154374B1B680133354A1360344B1B68FA
:10249000184600210D22FFF74BFF0246304B1A6011
:1024A0007B691B685B6903F01003002B12D0284B7B
:1024B00000221A6000237B607B691B685B697B607C
:1024C0007B691B687A691268126842F001021A601F
:1024D0007B68FFE700BF36E07B691B685B6903F040
:1024E0000203002B0DD0204B01221A6000233B6019
:1024F0007B691B685B693B607B691B689B693B6010
:102500003B687B691B685B6903F08003002B1AD072
:10251000154B00221A60104A114B1B681149CB5C05
:1025200013610F4B1B6801330D4A13600C4B1B6882
:10253000184600210C22FFF7FBFE0246084B1A60EA
:10254000034B00221A601837BD4680BD3C030020B3
:10255000A4030020A803002000540040F4760008E3
:102560009003002094030020AC03002080B500AF4E
:10257000FFF702FF80BD00BF80B582B000AF1D4BEA
:102580007B607B681B685B6903F48063002B14D05D
:10259000194B1B68013B184A1360174B1B68184600
:1025A00000210C22FFF7C4FE0246134B1A607B6821
:1025B0001B686FF480625A6118E07B681B685B6976
:1025C00003F48073002B05D07B681B686FF4807266
:1025D0005A610BE07B681B689B6903F00203002BC8
:1025E00004D07B681B686FF002025A610837BD4651
:1025F00080BD00BF3C0300209003002080B500AFE9
:10260000FFF7BAFF80BD00BF80B500AF0E4A0E4B8A
:102610001B6843F4007313600B4A0B4B1B6843F4B5
:1026200080631360084A084B1B6843F4807313608F
:10263000032000F0BFFC0F20FDF78CFE01F04CF8EA
:102640000023184680BD00BF003C024080B400AFAC
:10265000044B1B680133034A1360BD465DF8047BDD
:10266000704700BF5406002080B400AF034B1B68C6
:102670001846BD465DF8047B704700BF5406002035
:1026800080B58EB000AF786000237B637B681B68E9
:1026900003F00103002B4ED0A74B9B6803F00C0303
:1026A000042B0BD0A44B9B6803F00C03082B12D116
:1026B000A14B5B6803F48003002B0CD09E4B1B687E
:1026C00003F40033002B05D07B685B68002B01D13D
:1026D0000123DEE12FE0994A7B685B68DBB213706F
:1026E0007B685B68002B13D0FFF7BEFF786308E0C0
:1026F000FFF7BAFF02467B6BD31AC82B01D903231D
:10270000C7E18D4B1B6803F40033002BF0D012E0BF
:10271000FFF7AAFF786308E0FFF7A6FF02467B6B8E
:10272000D31AC82B01D90323B3E1834B1B6803F4ED
:102730000033002BF0D17B681B6803F00203002BF1
:1027400077D07D4B9B6803F00C03002B0BD07A4BAA
:102750009B6803F00C03082B26D1774B5B6803F4CE
:102760008003002B20D1744B1B6803F00203002B65
:1027700005D07B68DB68012B01D0012389E16E481D
:102780006D4B1B6823F0F8027B681969F8233B63E3
:102790003B6B93FAA3F3FB62FB6AB3FA83F301FA90
:1027A00003F31343036044E07B68DB68002B2AD00B
:1027B000634B01221A60FFF757FF786308E0FFF7C9
:1027C00053FF02467B6BD31A022B01D9032360E12E
:1027D000594B1B6803F00203002BF0D05648564BB0
:1027E0001B6823F0F8027B681969F823BB62BB6A97
:1027F00093FAA3F37B627B6AB3FA83F301FA03F3E0
:102800001343036015E04E4B00221A60FFF72CFFC4
:10281000786308E0FFF728FF02467B6BD31A022B90
:1028200001D9032335E1444B1B6803F00203002B5D
:10283000F0D17B681B6803F00803002B30D07B6865
:102840005B69002B16D03F4B01221A60FFF70CFF8B
:10285000786308E0FFF708FF02467B6BD31A022B70
:1028600001D9032315E1344B5B6F03F00203002B06
:10287000F0D015E0334B00221A60FFF7F5FE7863C5
:1028800008E0FFF7F1FE02467B6BD31A022B01D959
:102890000323FEE0284B5B6F03F00203002BF0D113
:1028A0007B681B6803F00403002B66D00023BB6029
:1028B000214A214B1B6C43F0805313641E4B1B6C4D
:1028C00003F08053BB60BB681F4A1F4B1B6843F477
:1028D00080731360FFF7C8FE786308E0FFF7C4FE5B
:1028E00002467B6BD31A022B01D90323D1E0164B8E
:1028F0001B6803F48073002BF0D0144A7B689B683C
:10290000DBB213707B689B68002B21D0FFF7ACFE15
:1029100078630AE0FFF7A8FE02467B6BD31A41F208
:102920008832934201D90323B3E0034B1B6F03F0BA
:102930000203002BEED020E00038024002380240B3
:1029400000004742800E474200700040703802404D
:10295000FFF78AFE78630AE0FFF786FE02467B6B8C
:10296000D31A41F28832934201D9032391E04B4BB1
:102970001B6F03F00203002BEED17B689B69002BD9
:1029800000F08680454B9B6803F00C03082B7DD03C
:102990007B689B69022B62D1414B00221A60FFF7D2
:1029A00063FE786308E0FFF75FFE02467B6BD31A95
:1029B000022B01D903236CE0384B1B6803F0007332
:1029C000002BF0D135487B68DA697B681B6A1A43B3
:1029D0007B68596A47F6C0733B623B6A93FAA3F37C
:1029E000FB61FB69B3FA83F301FA03F31A437B68D3
:1029F0009B6A5B08591E4FF44033BB61BB6993FA75
:102A0000A3F37B617B69B3FA83F301FA03F31A43FF
:102A10007B68D96A4FF070633B613B6993FAA3F31B
:102A2000FB60FB68B3FA83F301FA03F313434360DB
:102A30001B4B01221A60FFF717FE786308E0FFF7CF
:102A400013FE02467B6BD31A022B01D9032320E02D
:102A5000124B1B6803F00073002BF0D018E0104BF2
:102A600000221A60FFF700FE786308E0FFF7FCFD24
:102A700002467B6BD31A022B01D9032309E0074BD3
:102A80001B6803F00073002BF0D101E0012300E08C
:102A9000002318463837BD4680BD00BF00380240CD
:102AA0006000474280B586B000AF7860396000238F
:102AB0007B61824B1B6803F00F023B689A420CD289
:102AC0007E4B3A68D2B21A707C4B1B6803F00F023F
:102AD0003B689A4201D00123ECE07B681B6803F05D
:102AE0000203002B08D07649754B9B6823F0F00257
:102AF0007B689B6813438B607B681B6803F0010352
:102B0000002B00F088807B685B68012B07D16C4B41
:102B10001B6803F40033002B1AD10123CAE07B6841
:102B20005B68022B03D07B685B68032B08D1644B86
:102B30001B6803F00073002B01D10123BAE007E00A
:102B40005F4B1B6803F00203002B01D10123B1E0AE
:102B50005B495B4B9B6823F003027B685B68134314
:102B60008B60FFF781FD78617B685B68012B12D178
:102B70000AE0FFF779FD02467B69D31A41F28832F9
:102B8000934201D9032395E04D4B9B6803F00C035E
:102B9000042BEED13FE07B685B68022B12D10AE088
:102BA000FFF762FD02467B69D31A41F288329342F5
:102BB00001D903237EE0424B9B6803F00C03082BF2
:102BC000EED128E07B685B68032B12D10AE0FFF7A7
:102BD0004BFD02467B69D31A41F28832934201D9F8
:102BE000032367E0364B9B6803F00C030C2BEED1FC
:102BF00011E00AE0FFF738FD02467B69D31A41F283
:102C00008832934201D9032354E02D4B9B6803F093
:102C10000C03002BEED1294B1B6803F00F023B681D
:102C20009A420CD9254B3A68D2B21A70234B1B68D2
:102C300003F00F023B689A4201D001233AE07B681F
:102C40001B6803F00403002B08D01D491C4B9B6834
:102C500023F4E0527B68DB6813438B607B681B685E
:102C600003F00803002B09D01549154B9B6823F48A
:102C700060427B681B69DB0013438B6000F026F821
:102C800001460F4B9B6803F0F002F0233B613B6968
:102C900093FAA3F3FB60FB68B3FA83F322FA03F31E
:102CA000084AD35C21FA03F3074A13600F20FDF7AB
:102CB00051FB002318461837BD4680BD003C02403A
:102CC0000038024030770008A001002080B48BB0AB
:102CD00000AF0023FB6100237B620023BB61002364
:102CE0003B62364B9B6803F00C03042B06D0082B89
:102CF00007D0002B58D1324B3B6258E0314B3B623E
:102D000055E02E4B5B6803F03F03FB612B4B5B6888
:102D100003F48003002B17D02A4AFB69B2FBF3F2BD
:102D2000264B596847F6C0730B4047F6C07179616E
:102D3000796991FAA1F139613969B1FA81F1CB4030
:102D400003FB02F37B6216E01D4AFB69B2FBF3F260
:102D50001A4B596847F6C0730B4047F6C071F960CB
:102D6000F96891FAA1F1B960B968B1FA81F1CB4083
:102D700003FB02F37B62114B5B6803F440324FF4B8
:102D800040337B607B6893FAA3F33B603B68B3FA04
:102D900083F322FA03F301335B00BB617A6ABB69F8
:102DA000B2FBF3F33B6202E0054B3B6200BF3B6AC0
:102DB00018462C37BD465DF8047B7047003802404A
:102DC0000024F40040787D0180B400AF034B1B6801
:102DD0001846BD465DF8047B704700BFA001002087
:102DE00080B582B000AFFFF7EFFF01460B4B9B6849
:102DF00003F4E0524FF4E0537B607B6893FAA3F353
:102E00003B603B68B3FA83F322FA03F3044AD35CD2
:102E100021FA03F318460837BD4680BD003802404A
:102E20003077000880B582B000AFFFF7CDFF0146D4
:102E30000B4B9B6803F460424FF460437B607B68FC
:102E400093FAA3F33B603B68B3FA83F322FA03F3EC
:102E5000044AD35C21FA03F318460837BD4680BD07
:102E6000003802403077000880B485B000AF786049
:102E70007B6803F00703FB600C4BDB68BB60BA6840
:102E80004FF6FF031340BB60FB681A02BB68134395
:102E900043F0BF6343F40033BB60044ABB68D360B4
:102EA0001437BD465DF8047B704700BF00ED00E0BD
:102EB00080B400AF044BDB6803F4E0631B0A1846E0
:102EC000BD465DF8047B704700ED00E080B483B040
:102ED00000AF0346FB71084997F907305B09FA799F
:102EE00002F01F02012000FA02F241F823200C3701
:102EF000BD465DF8047B704700E100E080B483B01C
:102F000000AF03463960FB7197F90730002B0BDAED
:102F10000D49FB7903F00F03043B3A68D2B212016A
:102F2000D2B20B441A7609E0084997F907303A689B
:102F3000D2B21201D2B20B4483F800230C37BD4643
:102F40005DF8047B704700BF00ED00E000E100E0A9
:102F500080B489B000AFF860B9607A60FB6803F0B4
:102F60000703FB61FB69C3F10703042B28BF04239C
:102F7000BB61FB690433062B02D9FB69033B00E00C
:102F800000237B61BB69012202FA03F35A1EBB686E
:102F90001A407B699A407B69012101FA03F3591EAB
:102FA0007B680B40134318462437BD465DF8047B0D
:102FB000704700BF80B582B000AF78607868FFF7D7
:102FC00053FF0837BD4680BD80B586B000AF0346CD
:102FD000B9607A60FB7300237B61FFF769FF78615A
:102FE0007869B9687A68FFF7B3FF024697F90F303E
:102FF00018461146FFF782FF1837BD4680BD00BF57
:1030000080B582B000AF0346FB7197F907301846D0
:10301000FFF75CFF0837BD4680BD00BF80B58AB0B2
:1030200000AF786000233B61504A504B1B6B43F06C
:10303000020313634D4B1B6B03F002033B613B69BF
:103040000023FB60494A494B1B6B43F002031363A7
:10305000464B1B6B03F00203FB60FB680023BB6065
:10306000424A424B1B6C43F4001313643F4B1B6CEE
:1030700003F40013BB60BB684FF480737B611223C1
:10308000BB610023FB6102233B6204237B6207F1E7
:1030900014033748194600F0B7F84FF400737B610A
:1030A00004237B6207F114033148194600F0ACF8A1
:1030B0007B68304A1A607B684FF480421A617B68F3
:1030C0002D4A5A607B6800225A617B684FF4804227
:1030D0009A607B680022DA617B6800221A627B6852
:1030E0003C22DA607B6800229A617B68202283F8A8
:1030F0003E207868FDF7E2FE0346002B05D01F480E
:10310000252100220023FEF7B7FB20200121002209
:10311000FFF75AFF2020FFF773FF1F200221002234
:10312000FFF752FF1F20FFF76BFF7B681B687A6871
:103130001268526842F480625A607B681B687A6841
:103140001268526842F400725A607B681B687A68A1
:103150001268526842F480725A60064A054B1B6836
:1031600043F4806313602837BD4680BD00380240B9
:103170000004024000540040400D03004077000866
:1031800080B582B000AF786039603B68184601F0C6
:10319000B9F902467B681A607B683A68DA60786839
:1031A00000F01AF800BF7B6818460837BD4680BD9E
:1031B00080B582B000AF78607B681B68002B04D0BC
:1031C0007B681B68184601F083F900BF7B681846CE
:1031D0000837BD4680BD00BF80B582B000AF7860C3
:1031E0007B6800225A607B6800229A607B681A68BC
:1031F0007B68DB68104600211A4602F00DFF00BF15
:103200000837BD4680BD00BF80B489B000AF78608C
:10321000396000237B6100233B610023BB610023F5
:10322000FB6155E1FB69012202FA03F37B613B6814
:103230001A687B6913403B613A697B699A4240F0A6
:1032400044813B685B68022B03D03B685B68122BB0
:1032500022D1FB69DA087B68083253F82230BB615F
:10326000FB6903F007039B001A460F239340DB43DF
:10327000BA691340BB613B681B69FA6902F0070237
:1032800092009340BA691343BB61FB69DA087B681B
:103290000832B96943F822107B681B68BB61FB697F
:1032A0005B001A4603239340DB43BA691340BB61BA
:1032B0003B685B6803F00303FA6952009340BA6904
:1032C0001343BB617B68BA691A603B685B68012B7A
:1032D0000BD03B685B68022B07D03B685B68112B07
:1032E00003D03B685B68122B2FD17B689B68BB6166
:1032F000FB695B001A4603239340DB43BA69134022
:10330000BB613B68DB68FA6952009340BA691343BA
:10331000BB617B68BA699A607B685B68BB61FB696B
:10332000012202FA03F3DB43BA691340BB613B6835
:103330005B6803F010031A09FB6902FA03F3BA6928
:103340001343BB617B68BA695A607B68DB68BB6109
:10335000FB695B001A4603239340DB43BA691340C1
:10336000BB613B689B68FA6952009340BA6913439A
:10337000BB617B68BA69DA603B685B6803F08053C5
:10338000002B00F0A2800023FB60564A554B5B6C7B
:1033900043F480435364534B5B6C03F48043FB6002
:1033A000FB68514AFB699B08023352F82330BB612A
:1033B000FB6903F003039B001A460F239340DB4392
:1033C000BA691340BB617B68484A934219D07B6855
:1033D000474A934213D07B68464A93420DD07B689C
:1033E000454A934207D07B68444A934201D1042363
:1033F00008E0052306E0032304E0022302E00123A2
:1034000000E00023FA6902F0030292009340BA69D7
:103410001343BB613449FB699B080233BA6941F825
:103420002320374B1B68BB613B69DB43BA69134000
:10343000BB613B685B6803F48033002B03D0BA693F
:103440003B691343BB612E4ABB6913602C4B5B681D
:10345000BB613B69DB43BA691340BB613B685B6896
:1034600003F40033002B03D0BA693B691343BB61FB
:10347000234ABB695360224B9B68BB613B69DB43BA
:10348000BA691340BB613B685B6803F48013002B8F
:1034900003D0BA693B691343BB61194ABB699360A6
:1034A000174BDB68BB613B69DB43BA691340BB6107
:1034B0003B685B6803F40013002B03D0BA693B69D7
:1034C0001343BB610E4ABB69D360FB690133FB61E7
:1034D000FB690F2B7FF6A6AE2437BD465DF8047B53
:1034E000704700BF00380240003801400000024031
:1034F0000004024000080240000C0240001002409C
:10350000003C014080B582B000AF786039607868D7
:10351000396803F03BFA034618460837BD4680BDBC
:1035200090B593B000AFF860B9607A603B6000235B
:103530007B64FB681B785BB22B2B02D02D2B03D056
:1035400006E000237B64BCE04FF0FF337B64B8E00F
:103550007A681346DB009B1A5B0001335B4A9C18B8
:103560007A681346DB009B1A5B000133574A134409
:10357000184603F0E4F90346013307F12C02104624
:1035800021461A4602F03DFDF86803F0D8F90346DB
:10359000013307F118021046F9681A4602F031FDAE
:1035A00007F12C03FB6307F118037B61F86B03F051
:1035B000C6F90346F86B1946FEF77CF907F11803C4
:1035C000184603F0BCF903461A4607F118031846DB
:1035D0001146FEF76FF97B691846F96BFFF792FF0A
:1035E000B8637B69BA6B9A4215D0B86B03F0A7F940
:1035F00003465C1C07F11803184603F0A0F90346C4
:103600009C4203D16FF001037B6402E04FF0FF3373
:103610007B647B6C56E02E4A07F11003126811465A
:1036200019800233120C1A70F86803F088F9034607
:10363000013307F118021046F9681A4602F0E1FC5E
:1036400007F118037B6107F1140207F1100310461C
:10365000194603F096F9B86300233B643B68002BDE
:1036600005D11C48D22100220023FEF705F919E0FC
:1036700007F1140207F110031046194603F081F90F
:10368000B863BB6B7B633B6C5A1C3A649B003A6823
:10369000D418786B02F011FA034623603B6C012BBF
:1036A00000DD02E07B69002BE2D13B6C012B02D1F3
:1036B00001237B6404E03B6C022B01D102237B6479
:1036C00000BF7B6C18464C37BD4690BDF8770008AC
:1036D000F47700089C77000880B400AFBD465DF821
:1036E000047B704780B584B000AF78601F4BFB60EF
:1036F0001F4840211F4A204BFEF754F8FB681C4A24
:103700009A61FB681D4A5A61FB685B6918464FF471
:10371000E13100F0C9FCFB68194A1A62FB68194ADA
:103720001A60FB681B681846FFF778FC16480021F2
:103730000D2202F071FC144B48229A72124B342273
:10374000DA72114B33221A73104B00221A60FB6895
:103750000D4A5A60FB680D4A9A60FB680C4A1A6170
:10376000FB680D22DA601037BD4680BDA80400203A
:1037700074050020F404002034050020B00300206C
:1037800000002B443C030020940300209003002001
:10379000A4030020B0B588B004AF7860FEF764FFE2
:1037A000F860394B1B68FA68D31ABB60BB68B3F585
:1037B0007A7F66D935480121FEF770F87B689A6BED
:1037C0007B68DB6B324811461A46FEF767F87B6868
:1037D000D3ED0A7A9FED2F7A67EE877AFDEEE76ADE
:1037E0007B68D3ED0B7ABDEEE77A7B68D3ED107A78
:1037F000FDEEE77AC7ED007A3B889BB21AB27B6890
:10380000D3ED117AFDEEE77AC7ED007A3B889BB2E3
:103810001BB2009201932048204916EE902A17EE21
:10382000103A03F025F819480121FEF737F81A4835
:103830000021FEF733F81A4BDB781D46184B1B7935
:103840001C46174B5B791846154B9B791946144B50
:10385000DB791A46124B1B7A009001910292039376
:103860000D4810492A46234603F002F80748012173
:10387000FEF714F808480021FEF710F8024AFB682A
:1038800013601037BD46B0BD58060020307B0008DD
:10389000387B00080000C8425C060020447B00081A
:1038A00094030020547B000880B586B000AF124B13
:1038B0003B610023FB60FEF7D7FE7861FEF7D4FE84
:1038C000B860BA687B69D31A7B607B680A2B0BDD12
:1038D0003B695B691B681C331B683A695269104677
:1038E00006499847BB687B61386900F08FF93869F1
:1038F000FFF750FFE2E700BFA8040020E07A0008CD
:1039000080B582B000AF0020FFF7ECFE1748FEF74D
:1039100031F80346012B0CBF01230023DBB2002B3F
:1039200013D0134802F052FF0346FB7197F907309A
:10393000002B03D1FFF7B8FF0346FB7197F907305F
:103940000A481946FEF76AF80DE00A4B1B7803F0A7
:103950000203002B07D0084B1B689B6818460749D9
:10396000024A02F041FA0837BD4680BD6C7B000870
:10397000F80500208C05002008020020947B000838
:1039800080B485B000AFF860B9607A6097ED037AD3
:10399000D7ED027A27EE277AD7ED017AC7EE277A9C
:1039A00017EE903A18461437BD465DF8047B704711
:1039B00080B584B000AFF860B9607A603B6097ED85
:1039C000027AD7ED017A37EE677AD7ED007AC7EE43
:1039D000277AFB68C3ED097AFB685B6A184601F039
:1039E000AFFD02460B461046194624A3D3E9002337
:1039F00001F024FF02460B46104619464FF0000224
:103A00001B4B01F0F1FD02460B461046194601F032
:103A1000FDFF0246FB689A6297ED027AD7ED017AC4
:103A200077EE277AB0EE007AC7EE877AFB68C3EDAF
:103A30000B7AFB685B6A184600F06EFD07EE100A11
:103A4000DFED0C7A67EE277AFB68C3ED107AFB682E
:103A50005B6A184600F0A6FD07EE100ADFED067A55
:103A600067EE277AFB68C3ED117A1037BD4680BD3B
:103A70000080664000007AC300007A43182D445449
:103A8000FB21094080B584B000AF78607B689B6BF8
:103A900007EE903AF8EEE77A17EE900A3749384A7F
:103AA000FFF76EFF02467B681A637B68DB6B07EEED
:103AB000903AF8EEE77A17EE900A3049304AFFF76D
:103AC0005FFF02467B685A637B681A6B7B685B6B9F
:103AD000786811461A462B4BFFF76AFF7B685B68D4
:103AE0000333FB607B68D3ED107AFDEEE77AC7ED18
:103AF000007A3B887B81B7F90A301B129BB2DBB29C
:103B00009AB2B7F90A301B029BB213439BB23B81B6
:103B100007F10803F8681946022202F072FAFB68FE
:103B20000233FB6000233B8107F10803F868194664
:103B3000022202F066FAFB680233FB607B68D3ED79
:103B4000117AFDEEE77AC7ED007A3B887B81B7F901
:103B50000A301B129BB2DBB29AB2B7F90A301B02D1
:103B60009BB213439BB23B8107F10803F8681946E7
:103B7000022202F046FA1037BD4680BD0000A5447F
:103B800000409C4500002B4480B586B000AF7860B3
:103B90000023FB757B685B691B6808331B687A68C8
:103BA0005269104698470346002B14BF0123002397
:103BB000DBB2002B0AD07B685B691B6810331B6883
:103BC0007A685269104698470346FB757B689A6984
:103BD00097F9173010461946FDF700FE38613B692A
:103BE000002B10D07B689B699A687B68383310463D
:103BF00000210022FFF794FCF860FB68022B02D141
:103C00007868FFF73FFF1837BD4680BD80B582B0AA
:103C100000AF78607868FFF7B7FF0837BD4680BD12
:103C2000F8B5154D55F820206AB18601134FBB59E0
:103C300019680446480612D41A68910604D41A6812
:103C4000120748BF5B68F8BD0D4B55F824001B6890
:103C500000219847BB596FF020021A60EFE7084B2C
:103C600010461B6801219847BB596FF040021A604B
:103C70001A689106E3D5E7E7C0060020E8060020B1
:103C8000E00600200020FFF7CBBF00BF0120FFF7B8
:103C9000C7BF00BF0520FFF7C3BF00BF2DE9F04F2E
:103CA0000E4685B0044608465D49154600F092FA76
:103CB0005C490746284600F08DFA0146384600F078
:103CC00077FA411C074600F0A580574B984200F058
:103CD000818003F58063984263D0A3F550439842F6
:103CE00013D1524B1A6A42F400321A621A6A22F451
:103CF00000321A621A6C42F400321A641B6C03F42C
:103D000000330293029A012363603046444900F075
:103D10002DFA2846434900F029FA721C03D0304698
:103D2000012100F08BFB6B1C03D02846012100F021
:103D300085FB6168DFF810816576890108EB010079
:103D4000024600234FF4165E2676C4F808E0E360CE
:103D50002361636100F1100C42F8083F013548F817
:103D60000170C0F804E0C361C384C38553609360ED
:103D7000CCF808302AD001360CBF04230C23CCF831
:103D80000430FDF785F910B1294800F0B9F96368EE
:103D9000284A9B0158F80330934230D005B0BDE863
:103DA000F08F224B5A6A42F020025A625A6A22F07D
:103DB00020025A625A6C42F020025A645B6C03F093
:103DC00020030393039B052363609EE70823CCF83D
:103DD0000430D6E7154B5A6A42F010025A625A6A0A
:103DE00022F010025A625A6C42F010025A645B6C64
:103DF00003F0100301930023019A636085E70E4BE3
:103E00000E4821461C2201241C6002F0FAF805B07D
:103E1000BDE8F08F0A480B49C82200F065F974E745
:103E2000407D0008EC7C0008001001400038024092
:103E30001C7C000800440040E406002078090020B3
:103E40009C7B0008B87B0008E806002008B54268A3
:103E5000074B816003EB821318465960FDF718F990
:103E600000B908BD0348BDE8084000F049B900BFEB
:103E7000E80600201C7C000810B4044B4468044889
:103E8000196040F824205DF8044B7047E0060020DC
:103E9000C006002038B54368012B46D0052B41D021
:103EA000CBB100200446D2B19B01002933D1214A75
:103EB000D258D36865B243F02003D3600146284648
:103EC000FCF700FA6D0904F0070401231A4AA34025
:103ED00042F8253038BD19482524002AE4D1154A76
:103EE0009B01D358DA6879B922F02002DA60DB68E6
:103EF0001A061DD46309203304F0070401220E4979
:103F0000A24041F8232038BD22F08002DA60DB684D
:103F10009B06EFD538BD074AD258D36865B243F047
:103F20008003CAE706484724BDE706482624BAE7C7
:103F300038BD00BFE806002000E100E0853C000835
:103F4000953C00088D3C00084368054A9B01D25807
:103F500013689B06FCD55068C0F30800704700BF8B
:103F6000E80600204368054A9B01D25813681B06E7
:103F7000FCD5C1F308015160704700BFE80600207E
:103F80004368034A9B01D3581868C0F34010704738
:103F9000E80600204368034A9B01D3581868C0F321
:103FA000C0107047E8060020054B186800B1704744
:103FB000044A0549116001221A60FCF7CBB900BF21
:103FC00024090020E8080020000C004008B5064B3A
:103FD000186830B9054A0649116001221A60FCF7D9
:103FE000B9F9034B586A08BD24090020E8080020ED
:103FF000000C0040034B1B685863DA6842F0020271
:10400000DA607047E8080020034B1A68D36823F091
:104010000203D360704700BFE8080020024B1B6812
:104020006FF002021A617047E808002010B50446DC
:1040300000F016F8014B2360204610BD38730008CD
:1040400001EB4101C90043185A6B1B6A2AB11BB12D
:1040500001442431184610477047002BFCD0184704
:1040600038B504460E4B0360251D00234FF416504F
:10407000206563602846A360E36023616361A361F8
:104080002377637723626363A363E364FFF706FE2A
:10409000284622460349FFF7EFFE204638BD00BF01
:1040A000487300084140000838B504460D46043006
:1040B000FFF7CCFE256538BD70B40C4669B102EB44
:1040C0004203DB002033C5180026C15011466E6143
:1040D0000430012270BCFFF7DDBE114604302246D9
:1040E00070BCFFF7D7BE00BF10B40C4613460146A4
:1040F000224602485DF8044B00F002B8347C000808
:104100000FB400B5064B83B004AA1B6852F8041B19
:10411000D868019202F052F9012001F0E7FC00BFDB
:104120000802002038B50D46044600F0A9F8013514
:1041300011D094F9003001330ED06368E2681B049B
:1041400020461360012100F0B5F820460021BDE8AB
:10415000384000F0ABB838BD024803493422FFF7BD
:10416000C3FFEAE7D8710008F0710008431C10B5DE
:10417000044619D091F90030581C04D10FE011F910
:104180000C3F5A1C0BD09C42F9D12046896800F0A4
:1041900027F920460021BDE8104000F04FB9034840
:1041A000BDE81040FFF7ACBF10BD00BF687C000841
:1041B00088420AD0421C09D0013106D008B5044813
:1041C000FFF79EFF4FF0FF3008BD7047084670476D
:1041D0007C7C0008421C0FD008B591F900305A1CB5
:1041E00004D10AE011F90C3F5A1C06D09842F9D1CB
:1041F0004868411C01D008BD70470348FFF780FFA5
:104200004FF0FF30F7E700BF907C000808B5FFF7DC
:10421000DDFE024BA3FB0030400B08BD5917B7D1A0
:10422000014800F02FB900BFE47C000838B505460E
:10423000FFF7CCFE0446FFF7C9FE001BA842FAD3E5
:1042400038BD00BF4FF47A7303FB00F0FFF7EEBFF9
:10425000431C10B5044608D02046002100F0C0F8E9
:1042600004F00F040120A04010BD03480349272299
:10427000FFF73AFFF0E700BF947D0008A87D000833
:1042800070B505464B1C0C4629700DD0C1F30310C8
:1042900000F030F806462046FFF7DAFF06F110037B
:1042A00018366860AB60EE6070BD00BF90F900002A
:1042B00000F0C4B838B5054690F90000431C0C4620
:1042C0000BD0012C04D00021BDE8384000F088B8A4
:1042D0002146BDE8384000F083B80448044946222E
:1042E000FFF702FF95F90000EBE700BFD871000867
:1042F000A87D000800B587B0072859D8DFE800F08E
:1043000012202E3C4A5858042D4B2E481A6B42F06E
:1043100080021A631B6B03F080030593059B07B0B3
:104320005DF804FB264B28481A6B42F001021A6321
:104330001B6B03F001030093009B07B05DF804FBC7
:104340001F4B22481A6B42F002021A631B6B03F0E8
:1043500002030193019B07B05DF804FB184B1C4856
:104360001A6B42F004021A631B6B03F004030293FE
:10437000029B07B05DF804FB114B16481A6B42F024
:1043800008021A631B6B03F008030393039B07B037
:104390005DF804FB0A4B10481A6B42F010021A63D6
:1043A0001B6B03F010030493049B07B05DF804FB40
:1043B0000A48FFF7A5FE002007B05DF804FB00BF28
:1043C00000380240001C024000000240000402408D
:1043D00000080240000C0240001002403C7E000831
:1043E00030B5431C87B005460C461BD0C5F30310FF
:1043F000FFF780FF05F00F0504F00F010C4A0123C1
:10440000AB40019352F821500295C4F302120323EA
:10441000C4F3C31401A9039205940493FEF7F4FEB8
:1044200007B030BD034804498122FFF75DFEDDE798
:10443000087E0008947D0008607E000838B5431CA3
:1044400004460D4614D0C4F30310FFF753FF04F0E5
:104450000F04C26864000323A34022EA0303C3607D
:10446000022DC3688CBF0025A5401D43C56038BD23
:1044700002480349A622FFF737FEE4E7947D0008CF
:10448000607E0008036870B5DB68054698476B6876
:104490005B6883B12A681C6853689847201A002813
:1044A0006A680DDC50681168836853600029F0D099
:1044B00040688847EBE72B68BDE870409B68184769
:1044C0002B6852681B691068BDE87040184700BF30
:1044D00000F005B803460846194601F0F3BA01F0AA
:1044E00079BD10B5002814BF04460124204601F010
:1044F00069FD30B900F008F808B901F0D7FA804733
:10450000F4E710BDFFF7EDBF024B1868BFF35F8FF4
:10451000704700BF3009002000B585B0204A0190E7
:10452000019B23F0004393421DDDB3F1FF4F08DBF5
:10453000DDED017A77EEE77A17EE900A05B05DF8C7
:1045400004FB02A900F07CF800F00302012A0298A3
:10455000039919D0022A10D0EAB1012200F05AFDC5
:1045600007EE900AE8E7002100F0B6F907EE900A9E
:1045700017EE900A05B05DF804FB00F0ADF907EE08
:10458000900AF1EE677AD7E700F044FD07EE900A53
:10459000F1EE677AD0E700F09FF907EE900ACBE7DB
:1045A000D80F493F00B585B0244A0190019B23F004
:1045B000004393421EDDB3F1FF4F08DBDDED017ACE
:1045C00077EEE77A17EE900A05B05DF804FB02A9D2
:1045D00000F036F800F00300012820D0022814D0A3
:1045E00020B30298039900F077F907EE900AF1EEF4
:1045F000677AE7E70021002200F00CFD07EE900A41
:1046000017EE900A05B05DF804FB029803990122A9
:1046100000F000FD07EE900AF1EE677AD2E702980B
:10462000039900F059F907EE900ACBE70298039935
:10463000012200F0EFFC07EE900AC3E7D80F493FD4
:1046400070B5974A20F00044944286B006460D4665
:1046500068DD944A94421CDC0028DFED937A934A8B
:1046600024F00F0407EE100A40F3E280944277EE44
:10467000677A67D09FED8E7A77EEC76A012077EE72
:10468000E67AC1ED006A77EEC77AC1ED017A06B02D
:1046900070BD884A944267DDB4F1FF4F48DAE215F5
:1046A000863AA4EBC25307EE103AFDEEC76ADFED7F
:1046B000827AF8EEE66A37EE667ACDED036A27EE87
:1046C000277AFDEEC76AF8EEE66A37EE667ACDED38
:1046D000046A67EE277AF5EE407AF1EE10FACDED36
:1046E000057A40F0B880F5EE406AF1EE10FA14BF9A
:1046F00002230123714902208DE8030003A8294603
:1047000000F074F9002E11DA95ED007AD5ED017AFA
:10471000B1EE477AF1EE677A404285ED007AC5ED59
:10472000017A03E0002228604A60002006B070BDD4
:1047300007EE900A77EEE77A0020C1ED017AC1ED2D
:10474000007AF3E7DFED5E6A9FED5E7A77EEE67A58
:10475000012077EEC76A77EEE67AC1ED006A77EE60
:10476000C77AC1ED017AE1E700F0A2FC9FED566A3D
:104770009FED4D5ADFED4E6A07EE100AF6EE007A15
:10478000E7EE067AFDEEE77AB8EEE76A17EE900AF2
:10479000F1EE465AF0EE477A1F28E5EE857A26EECE
:1047A000267A1DDC494A411E24F0FF0352F82120DD
:1047B000934215D077EEC76AC5ED006A77EEE67AC8
:1047C000002E77EEC77AC5ED017AAFDAF1EE666AB0
:1047D000F1EE677AC5ED006AC5ED017A4042A5E7C2
:1047E00077EEC76AE41516EE903AC3F3C753E31A9F
:1047F000082BE1DD9FED327ADFED326AB0EE675AC9
:10480000A5EE875A77EEC57AE5EE877AD6EE267A58
:1048100075EE676AB0EE677A16EE903AC3F3C75347
:10482000E41A192C2CDCC5ED006AF0EE457AC5E7D8
:10483000944277EE277A10D09FED1D7A77EE876A43
:104840004FF0FF3077EEE67AC1ED006A77EE877AB7
:10485000C1ED017A6AE703234CE7DFED196A9FEDAA
:10486000197A77EEA67A4FF0FF3077EE876A77EE07
:10487000E67AC1ED006A77EE877AC1ED017A55E7F5
:10488000DFED136ADFED134AF0EE457AE5EEA67A26
:1048900035EE677AA5EEA67A96EE247A8AE700BF0F
:1048A000D80F493FE3CB1640800FC93FD00FC93F17
:1048B00043443537800F494300008043407F000860
:1048C0000044353708A3852E84F9223FC07E0008B6
:1048D00000A3852E32318D2420F00043B3F1485FD0
:1048E00006EE100A06EE901A2EDAFDEEC67A17EEE4
:1048F000903A002B64D026EE067ADFED343A9FED35
:10490000344ADFED344A9FED345ADFED347ADFED7F
:10491000345AA7EE234AE4EE074AA4EE875AE5EE9E
:10492000077AE7EE875A65EE875A66EEC66AB6EEF4
:10493000006AE7EE256AF7EE007AD7EE066A77EEB0
:10494000E67A17EE900A704726EE067ADFED1F3AF8
:104950009FED1F4ADFED1F4A9FED1F5ADFED1F7AC3
:10496000DFED1F5A1F4AA7EE234A9342E4EE074A9F
:10497000A4EE875AE5EE077AE7EE875A65EE875A86
:10498000D3DD194A934216DC03F17F4307EE903AD8
:10499000B7EE005A35EE675A66EEC66AB6EE006AA2
:1049A000E7EE256AD7EE067A77EEE67A75EE677A55
:1049B00017EE900A7047B6EE075AF5EE027AEBE76B
:1049C000F7EE007A17EE900A704700BF4ED747AD5A
:1049D000F6740F317CF293B4010DD037610BB6BA87
:1049E000ABAA2A3D9999993E0000483F2DE9F04F26
:1049F0002DED048BD7B05E1EA54C649D0293D31E93
:104A000048BF131D54F825500191DB1023EAE373CE
:104A10006FEA030A71190393814602EBCA0AA3EBFA
:104A2000060314D41944659801311AAA002BAABFB1
:104A300050F82340DFED977A07EE904A03F1010327
:104A4000A8BFF8EEE77A8B42E2EC017AEED1002DB6
:104A50001ADB029B1AA96C1C01EB840442A89F007C
:104A6000002EC0F2CE81DFED8B7A4A46CB1933EDB2
:104A7000017AF2EC016A9942E6EE877AF7D10431C5
:104A8000A142E0EC017AEBD1029ADFED848A9FED3E
:104A9000828A05F18043013B9B00C2EB827806AA23
:104AA0001F1D1344174404934FEA88082C464FEA0D
:104AB000840B56AB5B44002C53ED146A19DD42A9FC
:104AC00001EB0B0305AA66EEA87AB0EE667AFDEE5E
:104AD000E77A33ED016AF8EEE77A8B42A7EEC87AFF
:104AE00077EE866ABDEEC77A17EE100A42F8040F19
:104AF000E9D116EE900A514600F038FB09EE100A93
:104B0000F4EE007A69EE277A17EE900A00F0D4FAF4
:104B100007EE100AF2EE007AA7EE679ABAF1000FDC
:104B2000FDEEC99AF8EEE97A39EE679A40F34D81C5
:104B3000611E06AACAF1080352F8210040FA03F2E6
:104B400002FA03F30DF1180EC31A4EF8213019EED4
:104B5000901A1144CAF1070009EE901A43FA00FCBA
:104B6000BCF1000F37DD19EE903A002C03F1010380
:104B700009EE903A40F3DE810022104605A908E0D4
:104B8000C3F5807E13B1C1F800E0012001329442E8
:104B90000BDD51F8043F0028F2D00132C3F1FF03CE
:104BA00094420B604FF00100F3DCBAF1000F0FDD0F
:104BB000BAF1010F00F01181BAF1020F08D1621EA3
:104BC00006AB06A953F8223003F03F0341F8223028
:104BD000BCF1020F64D0B5EE409AF1EE10FA77D135
:104BE000631E9D420BDC06AA934400225BF8041D61
:104BF000BB4542EA0102F9D1002A40F085816B1ED3
:104C000006AA52F82330002B40F09181049B4FF00C
:104C1000010C53F8042D0CF1010C002AF9D0A44426
:104C2000631C634531DC039A03EB020E029A0EF11A
:104C3000804EA0180CEB020B659A0EF1FF3E02EBC2
:104C40008E0E1AAA02EB800002EB8B0B42AA02EB3B
:104C500083045EF8043F07EE903AF8EEE77A002E00
:104C6000E0EC017ADFED0B7A0BDB4A4600EB080142
:104C7000034633ED017AF2EC016A8B42E6EE877A65
:104C8000F7D15845E4EC017AE3D164460FE700BF61
:104C90005882000800000000000080430000803BB4
:104CA000F7EE007A37EEC99A002894D017EE900AF2
:104CB0005146CDF814C000F059FA07EE900A39EECB
:104CC000679ADDF814C0B5EE409AF1EE10FA87D07D
:104CD00019EE100ACAF10001CDF808C000F046FA3A
:104CE0005FED136ADDF808C007EE100AB4EEE67A4D
:104CF000F1EE10FAC0F281815FED187A67EE277A43
:104D000006A9FDEEE77A631CF8EEE77A0AF1080AD5
:104D1000A7EEE67AFDEEE77ABDEEC77A17EE102A27
:104D200041F8242017EE902A41F8232051464FF0F5
:104D30007E500393CDF808C000F018FA039BDDF80D
:104D400008C0002B07EE100AC0F2C2805F1CBA0038
:104D500042A806A95FED2F6A1144861871ED017A09
:104D6000F8EEE77A67EE877A27EE267A66ED017A23
:104D70008642F3D1043A16440024002DC0F2A580E7
:104D8000002CC0F2A280A148DFEDA17A31460022BA
:104D900001E0A24208DCF0EC016AB1EC017A0132D8
:104DA0009542E6EE877AF4DA56AA02EB84020134E1
:104DB000BC42A6F1040642ED287ADED1649A032AA9
:104DC00065D8DFE802F06D3A3AB910D1631E06AA41
:104DD00052F823304FEA232CC2E6621E06AB06A926
:104DE00053F8223003F07F0341F82230F0E6F6EE6C
:104DF000007AB4EEE79AF1EE10FA0BDA4FF0000CFD
:104E0000E9E6DFED837A0431A142E0EC017A7FF438
:104E100027AE39E619EE903A002C03F1010309EEB2
:104E2000903AC8BF4FF0020C3FF7A6AEF7EE007AFB
:104E300037EEC99A4FF0020CCDE62EAADFED747A58
:104E400002EB870737ED017A974277EE877AF9D13F
:104E5000BCF1000F48D0DDED2E6A019AB1EE677A01
:104E6000002B76EEE77A82ED007A0BDD2FA9012286
:104E7000B1EC017A0132934277EE877AF8DABCF12D
:104E8000000F01D0F1EE677A019BC3ED017A19EEB4
:104E9000903A03F0070057B0BDEC048BBDE8F08FEB
:104EA0002EAADFED5B7A02EB870737ED017A013B33
:104EB0005A1C77EE877AF8D1BCF1000F01D0F1EEE1
:104EC000677A019BC3ED007AE1E7DFED517A6BE78A
:104ED000649A032ADBD8DFE802F014020283DFEDD4
:104EE0004C7ABCF1000FB6D19DED2E7A019A002BC1
:104EF000C2ED007A77EE677AB8DC019BC3ED017AE8
:104F0000C5E7DFED437AD7E706AAAAF1080A52F807
:104F10002320002A7FF40AAF06AA02EB830252F88C
:104F2000041D013BAAF1080A0029F8D0FEE64FF063
:104F3000010C74E6002038E6002B51DD9A0056A9DA
:104F400011442EAC101D11ED287A2044A11871EDEA
:104F5000017A77EE276AA14277EEE67A77EE277A32
:104F6000B0EE667A60ED017AC1ED006AEFD1012BF7
:104F700036DD131D56A810440B4410ED287A0A4460
:104F80002FA8194672ED017A77EE876A824277EE92
:104F9000E67A77EE877AB0EE667A61ED017AC2ED55
:104FA000006AEFD1DFED1A7A30AA33ED017A93422D
:104FB00077EE877AF9D1BCF1000F16D0DDED2E6ABD
:104FC0009DED2F7A019AF1EE677AF1EE666AB1EE05
:104FD000477AC2ED027AC2ED006A82ED017A56E7A5
:104FE000DFED0B7ABCF1000FE8D101982E9A2F9BD0
:104FF000C0ED027A0260436049E7BDEEC77A06A9B8
:1050000017EE102A234641F824208FE66482000818
:105010000000000020F00043B3F1485F07EE900A63
:1050200006EE101A04DABDEEE77A17EE103A23B353
:1050300027EEA77A9FED174ADFED174A9FED175A23
:10504000DFED175ADFED176AE7EE044A27EE274A2D
:10505000A4EE875AE5EE075AE5EE876A82B166EE5E
:10506000C46AF6EE005AE6EE256ADFED0F5A96EEB8
:10507000876AA4EE256A77EEC67A17EE900A704723
:105080009FED0A6AA7EE266AE6EE047A17EE900A0A
:10509000704700BFD3C92E2F342FD7B21BEF38363D
:1050A000010D50B98988083CABAA2A3EABAA2ABE9A
:1050B00020F00040704700BF10B483B00190019A07
:1050C00022F00041CB0D7F3B162B19DC002B144640
:1050D00028DB24481841104215D0DFED237A9DEDDE
:1050E000017A77EE277AF5EEC07AF1EE10FA28DD34
:1050F000002A29DB24EA000003B05DF8044B704766
:10510000B1F1FF4F04D2019803B05DF8044B704732
:10511000DDED017A77EEA77A17EE900A03B05DF81D
:10512000044B7047DFED107A07EE100A77EE277A0E
:10513000F5EEC07AF1EE10FAE5DD002A0ADB002078
:10514000E2E717EE100ADFE74FF4000242FA03F33A
:105150001C44CFE70029FFEE007A18BF17EE900A33
:10516000D2E700BFFFFF7F00CAF2497100B52DED05
:10517000028B83B00190019B33F0004223D0B2F147
:10518000FF4F15D2B2F5000F26D3D20D0A44FE2AE6
:105190003CDC002A30DD23F0FF4343EAC25307EE34
:1051A000903A17EE900A03B0BDEC028B5DF804FB59
:1051B00007EE900A77EEA77A17EE900A03B0BDECDF
:1051C000028B5DF804FBDDED017A17EE900A03B067
:1051D000BDEC028B5DF804FB9DED017ADFED1E7ADC
:1051E0001E4B67EE277A9942CDED017A20DB019BB9
:1051F000C3F3C752193AC9E712F1160F1FDA4CF27E
:105200005033994202DC9FED168A01E09FED158A2A
:10521000019918EE100A00F029F807EE900A67EEDF
:10522000887A17EE900A03B0BDEC028B5DF804FBA0
:10523000DFED0B7A9DED017A67EE277ABCE7193234
:1052400023F0FF4343EAC2539FED077A07EE903AFB
:1052500067EE877AB0E700BF0000004CB03CFFFF6C
:105260006042A20DCAF249710000003301F0004112
:1052700020F000400843704781F0004102E000BF89
:1052800083F0004330B54FEA41044FEA430594EA06
:10529000050F08BF90EA020F1FBF54EA000C55EA41
:1052A000020C7FEA645C7FEA655C00F0E2804FEA12
:1052B0005454D4EB5555B8BF6D420CDD2C4480EAF4
:1052C000020281EA030382EA000083EA010180EA24
:1052D000020281EA0303362D88BF30BD11F0004F72
:1052E0004FEA01314FF4801C4CEA113102D04042A8
:1052F00061EB410113F0004F4FEA03334CEA1333E3
:1053000002D0524263EB430394EA050F00F0A780FA
:10531000A4F10104D5F1200E0DDB02FA0EFC22FAF5
:1053200005F2801841F1000103FA0EF2801843FAE9
:1053300005F359410EE0A5F120050EF1200E012ADA
:1053400003FA0EFC28BF4CF0020C43FA05F3C01818
:1053500051EBE37101F0004507D54FF0000EDCF191
:10536000000C7EEB00006EEB0101B1F5801F1BD33A
:10537000B1F5001F0CD349085FEA30004FEA3C0C3E
:1053800004F101044FEA445212F5800F80F09A8034
:10539000BCF1004F08BF5FEA500C50F1000041EB38
:1053A000045141EA050130BD5FEA4C0C404141EB3C
:1053B000010111F4801FA4F10104E9D191F0000F63
:1053C00004BF01460020B1FA81F308BF2033A3F1E6
:1053D0000B03B3F120020CDA0C3208DD02F1140CDD
:1053E000C2F10C0201FA0CF021FA02F10CE002F118
:1053F0001402D8BFC2F1200C01FA02F120FA0CFC11
:10540000DCBF41EA0C019040E41AA2BF01EB045159
:10541000294330BD6FEA04041F3C1CDA0C340EDC57
:1054200004F11404C4F1200220FA04F001FA02F39A
:1054300040EA030021FA04F345EA030130BDC4F158
:105440000C04C4F1200220FA02F001FA04F340EA4D
:105450000300294630BD21FA04F0294630BD94F0FE
:10546000000F83F4801306BF81F480110134013DE5
:105470004EE77FEA645C18BF7FEA655C29D094EA56
:10548000050F08BF90EA020F05D054EA000C04BFD4
:105490001946104630BD91EA030F1EBF00210020BF
:1054A00030BD5FEA545C05D14000494128BF41F05E
:1054B000004130BD14F580043CBF01F5801130BDC2
:1054C00001F0004545F0FE4141F470014FF000004D
:1054D00030BD7FEA645C1ABF194610467FEA655CFE
:1054E0001CBF0B46024650EA013406BF52EA0335A0
:1054F00091EA030F41F4002130BD00BF90F0000F8E
:1055000004BF0021704730B54FF4806404F13204C9
:105510004FF000054FF0000150E700BF90F0000F82
:1055200004BF0021704730B54FF4806404F13204A9
:1055300010F0004548BF40424FF000013EE700BF79
:1055400042004FEAE2014FEA31014FEA02701FBF09
:1055500012F07F4393F07F4F81F06051704792F0DB
:10556000000F14BF93F07F4F704730B54FF4607455
:1055700001F0004521F0004120E700BF50EA0102A0
:1055800008BF704730B54FF000050AE050EA01024D
:1055900008BF704730B511F0004502D5404261EBBD
:1055A00041014FF4806404F132045FEA915C3FF4FE
:1055B000DCAE4FF003025FEADC0C18BF03325FEA97
:1055C000DC0C18BF033202EBDC02C2F1200300FA4C
:1055D00003FC20FA02F001FA03FE40EA0E0021FA71
:1055E00002F11444C1E600BF70B54FF0FF0C4CF45B
:1055F000E06C1CEA11541DBF1CEA135594EA0C0F11
:1056000095EA0C0F00F0DEF82C4481EA030621EA4B
:105610004C5123EA4C5350EA013518BF52EA033586
:1056200041F4801143F4801338D0A0FB02CE4FF038
:105630000005E1FB02E506F00042E0FB03E54FF068
:105640000006E1FB03569CF0000F18BF4EF0010E60
:10565000A4F1FF04B6F5007F64F5407404D25FEA5C
:105660004E0E6D4146EB060642EAC62141EA55510F
:105670004FEAC52040EA5E504FEACE2EB4F1FD0C51
:1056800088BFBCF5E06F1ED8BEF1004F08BF5FEACF
:10569000500E50F1000041EB045170BD06F0004681
:1056A00046EA010140EA020081EA0301B4EB5C042E
:1056B000C2BFD4EB0C0541EA045170BD41F4801126
:1056C0004FF0000E013C00F3AB8014F1360FDEBF4B
:1056D000002001F0004170BDC4F10004203C35DA27
:1056E0000C341BDC04F11404C4F1200500FA05F3AA
:1056F00020FA04F001FA05F240EA020001F000424B
:1057000021F0004110EBD37021FA04F642EB0601C0
:105710005EEA430E08BF20EAD37070BDC4F10C04EA
:10572000C4F1200500FA04F320FA05F001FA04F2AE
:1057300040EA020001F0004110EBD37041F100019A
:105740005EEA430E08BF20EAD37070BDC4F12005A5
:1057500000FA05F24EEA020E20FA04F301FA05F20D
:1057600043EA020321FA04F001F0004121FA04F2B5
:1057700020EA020000EBD3705EEA430E08BF20EA85
:10578000D37070BD94F0000F0FD101F000464000BF
:1057900041EB010111F4801F08BF013CF7D041EA41
:1057A000060195F0000F18BF704703F00046520045
:1057B00043EB030313F4801F08BF013DF7D043EA16
:1057C0000603704794EA0C0F0CEA135518BF95EACC
:1057D0000C0F0CD050EA410618BF52EA4306D1D153
:1057E00081EA030101F000414FF0000070BD50EA72
:1057F000410606BF1046194652EA430619D094EAFC
:105800000C0F02D150EA013613D195EA0C0F05D1E5
:1058100052EA03361CBF104619460AD181EA030139
:1058200001F0004141F0FE4141F470014FF00000F1
:1058300070BD41F0FE4141F4780170BD70B54FF08C
:10584000FF0C4CF4E06C1CEA11541DBF1CEA13550C
:1058500094EA0C0F95EA0C0F00F0A7F8A4EB0504EE
:1058600081EA030E52EA03354FEA013100F08880E5
:105870004FEA03334FF0805545EA131343EA1263AE
:105880004FEA022245EA111545EA10654FEA002663
:105890000EF000419D4208BF964244F1FD0404F51C
:1058A000407402D25B084FEA3202B61A65EB030578
:1058B0005B084FEA32024FF480104FF4002CB6EB35
:1058C000020E75EB030E22BFB61A754640EA0C00B5
:1058D0005B084FEA3202B6EB020E75EB030E22BFF5
:1058E000B61A754640EA5C005B084FEA3202B6EB36
:1058F000020E75EB030E22BFB61A754640EA9C00F5
:105900005B084FEA3202B6EB020E75EB030E22BFC4
:10591000B61A754640EADC0055EA060E18D04FEA82
:10592000051545EA16754FEA06164FEAC30343EA22
:1059300052734FEAC2025FEA1C1CC0D111F4801FEF
:105940000BD141EA00014FF000004FF0004CB6E7E8
:1059500011F4801F04BF01430020B4F1FD0C88BF87
:10596000BCF5E06F3FF6AFAEB5EB030C04BFB6EB92
:10597000020C5FEA500C50F1000041EB045170BD85
:105980000EF0004E4EEA113114EB5C04C2BFD4EBB2
:105990000C0541EA045170BD41F480114FF0000E36
:1059A000013C90E645EA060E8DE60CEA135594EAB2
:1059B0000C0F08BF95EA0C0F3FF43BAF94EA0C0FB5
:1059C0000AD150EA01347FF434AF95EA0C0F7FF42A
:1059D00025AF104619462CE795EA0C0F06D152EA7E
:1059E00003353FF4FDAE1046194622E750EA410662
:1059F00018BF52EA43067FF4C5AE50EA41047FF473
:105A00000DAF52EA43057FF4EBAE12E74FEA4102D5
:105A1000B2F1E04324BFB3F5001CDCF1FE5C0DD90C
:105A200001F0004C4FEAC0024CEA5070B2F1004F56
:105A300040EB830008BF20F00100704711F0804F59
:105A400021D113F13872BCBF01F00040704741F41E
:105A500080114FEA5252C2F11802C2F1200C10FA22
:105A60000CF320FA02F018BF40F001004FEAC12306
:105A70004FEAD32303FA0CFC40EA0C0023FA02F3AA
:105A80004FEA4303CCE77FEA625307D150EA013380
:105A90001EBF4FF0FE4040F44000704701F0004050
:105AA00040F0FE4040F40000704700BF08B50620FB
:105AB00000F0C2FE0120FAF767FD00210A2201F082
:105AC0002FB8000038B5054604480C46134620B1EF
:105AD000022029462246AFF3008038BD00000000B6
