:020000040800F2
:1000000000000220AD050008F9050008F905000808
:10001000F9050008F9050008F905000800000000CE
:10002000000000000000000000000000F9050008CA
:10003000F905000800000000F9050008F9050008AE
:10004000F9050008F9050008F9050008F905000898
:10005000F9050008F9050008F9050008F905000888
:10006000F9050008F9050008F9050008F905000878
:10007000F9050008F9050008F9050008F905000868
:10008000F9050008F9050008F9050008000000005E
:10009000000000000000000000000000F90500085A
:1000A000F9050008F9050008F9050008F905000838
:1000B000F9050008F9050008F9050008AD2B00084E
:1000C000BD2B0008F9050008F9050008F90500082E
:1000D000F9050008F9050008F9050008000000000E
:1000E000F9050008F9050008F905000800000000FE
:1000F000000000000000000000000000F9050008FA
:1001000000000000F9050008F9050008F9050008DD
:1001100000000000000000000000000000000000DF
:10012000F9050008F9050008F9050008F9050008B7
:10013000F9050008000000000000000000000000B9
:10014000000000000000000000000000F9050008A9
:10015000F9050008F9050008F9050008F905000887
:10016000F9050008F9050008000000000000000083
:10017000000000000000000000000000000000007F
:1001800000000000F9050008000000000000000069
:10019000F9050008F905000810B5054C237833B9B6
:1001A000044B13B10448AFF300800123237010BD4A
:1001B0001802002000000000945F0008084B10B5F2
:1001C0001BB108480849AFF300800848036803B929
:1001D00010BD074B002BFBD0BDE81040184700BFF7
:1001E00000000000945F00081C02002014020020A0
:1001F00000000000154B002B08BF134B9D46A3F5D4
:10020000803A00218B460F461348144A121A04F014
:10021000E5F90F4B002B00D098470E4B002B00D078
:1002200098470020002104000D000D48002802D04E
:100230000C48AFF3008004F081F92000290000F0A1
:1002400085F903F035FF00BF000008000000022020
:100250000000000000000000180200200409002037
:10026000000000000000000000B585B072B6052156
:10027000684603F03DF910E0039B019A1A6096204E
:1002800003F0C6F99DF90030013310D0019B039AA9
:100290001B041360962003F0BBF99DF90030013375
:1002A000EAD106480649342203F004F9E4E703489A
:1002B0000349342203F0FEF8E8E700BF9C5500082C
:1002C000B45500080F4A30B493689468B4F1006FD5
:1002D0001A4604D0103030BC42F8201070470A4A49
:1002E00003F5CC7553F8044B42F8044FAB42F9D1F7
:1002F0004FF00052034B10309A6030BC42F820108F
:10030000704700BF00ED00E0FCFFFF1F70B50F4C11
:100310002368DA68910715D4DA68520709D56FF0B7
:1003200004020B4E1A615D6A3368EB1AB3F57A7FEB
:1003300000D270BD00F07CF92368356005F57A7550
:100340009D6370BD03F052F92368E5E7A80800201B
:1003500034020020244B30B51A6C244C42F00802C1
:100360001A641A6C83B002F008020192019A1A6AA8
:1003700042F008021A621A6A22F008021A6201F0B8
:1003800031FA1B4B1B4A1B681B492160A2FB03234C
:100390009B0C0025013B4FF0FF3220466360E2607A
:1003A0002561A560656101F007F932201349FFF767
:1003B00089FF134B4FF480225A602946204601F0F2
:1003C0008DF82046042101F089F823680D495A6A06
:1003D0000A6002F57A729A63DA68284642F00402EB
:1003E000DA6003B030BD00BF00380240A80800202A
:1003F000A001002083DE1B43000C00400D03000819
:1004000000E100E03402002008B501F0EBF9BDE89E
:10041000084000F0F3B800BF02480221032202F0B6
:1004200023BE00BFE408002002280ADDC31E074ADD
:1004300052F82300002142F8231020B103685B68C2
:100440001847002070474FF0FF30704738020020F7
:10045000022812DC0E4B1B6870B50C4616460BB911
:10046000FFF7DAFFA51936B114F8011B094802F0AD
:100470005FFFAC42F8D1304670BD0338064B53F8ED
:10048000200010B103681B6818474FF0FF30704719
:1004900050060020E40800203802002002280DDC6D
:1004A0000C4B1B6810B50C460BB9FFF7B5FF0A489B
:1004B00002F030FF01232070184610BD0338074BAF
:1004C00053F8200010B103689B6818474FF0FF33C2
:1004D0001846704750060020E4080020380200202B
:1004E000022807DD0338064B53F8200020B10368CB
:1004F000DB681847012070474FF0FF30704700BF9E
:1005000038020020022807DD0338064B53F820008C
:1005100020B103681B691847002070474FF0FF3077
:10052000704700BF38020020022808B504D84FF4F5
:1005300000534B60002008BD03F0B4FD09230360A5
:100540004FF0FF3008BD00BF704700BF08B5FFF790
:100550005BFFFFF7F9FFBDE8084002F0EBB900BF11
:10056000074A13681844EFF30881884202D21060EA
:1005700018467047034B0C221A604FF0FF3070474B
:100580009C01002000090020074C08B5236805469F
:10059000986803F04FFE2368D86803F04BFE05B956
:1005A000FEE7FFF761FEFBE704020020DFF830D032
:1005B000002103E00B4B5B58435004310A480B4BBE
:1005C00042189A42F6D30A4A02E0002342F8043B5A
:1005D000084B9A42F9D301F0E1F9FFF70BFE70479F
:1005E00000000220A05F00089801002018020020EF
:1005F0001802002004090020FEE7000008B50B4B9C
:100600001A6842F400721A601A6842F480621A6032
:100610001A6842F480721A60032000F017F80F2065
:10062000FFF798FE00F066F8002008BD003C02408D
:10063000024A136801331360704700BF380300207B
:10064000014B1868704700BF38030020074AD16883
:100650004FF6FF030B4043F0BF6300F0070043F485
:10066000003343EA0023D360704700BF00ED00E091
:10067000184BDB68C3F3022330B4C3F10705042D24
:1006800003F1040428BF0425062C17D9033B0124D9
:100690009C40013C22400124AC40013C2140994057
:1006A000002842EA01020CDB00F1604000F56140E5
:1006B0001201D2B280F8002330BC704700221346EA
:1006C000E9E7054B00F00F0012010344D2B21A769D
:1006D00030BC704700ED00E0FCEC00E000F01F01D2
:1006E00001234009024A8B4042F82030704700BF86
:1006F00000E100E0704700BF2DE9F04FDFF8D0C106
:10070000D1F800E06D4F83B000234FF0010803E003
:100710000133102B00F0858008FA03F202EA0E0480
:100720009442F5D14D6825F0100ABAF1020F7BD042
:100730004FEA43090322D0F800B002FA09F2D2438B
:1007400005F0030602EA0B0B06FA09F60AF1FF3A76
:100750004BEA0606BAF1010F066040F28B80C668CC
:1007600032408E6806FA09F61643EA00C660CFD515
:10077000DCF8442042F48042CCF84420DCF84460A9
:1007800023F0030206F48046019602F1804203F052
:1007900003064FEA860B02F59C320F2606FA0BFA87
:1007A000474EDDF80490D2F80890B04229EA0A09D1
:1007B00074D006F58066B04272D0424EB04272D01C
:1007C000414EB04274D0414EB0420CBF4FF0040ACB
:1007D0004FF0050A0AFA0BF646EA090696603A68EF
:1007E000E64315F4803F14BF224332403A607A68F2
:1007F00015F4003F14BF224332407A60BA6815F402
:10080000801F14BF22433240BA60FA68AD0203F180
:10081000010354BF06EA02041443102BFC607FF46A
:100820007BAF03B0BDE8F08F4FEAD30900EB890935
:1008300003F00706D9F82020B6004FF00F0A0AFA95
:1008400006FB22EA0B0A0A69B2404AEA0202C9F828
:1008500020204FEA43090322D0F800A002FA09F24F
:10086000D24305F0030602EA0A0A06FA09F64AEA42
:1008700006060660866802EA060ACE6806FA09F6E7
:100880004AEA06068660D0F804A0C5F300162AEAF4
:10089000040A9E404AEA0606466060E700269BE797
:1008A00008FA0BF698E74FF0020A0AFA0BF693E7FC
:1008B0004FF0030A0AFA0BF68EE700BF003C014036
:1008C0000000024000080240000C024000100240FC
:1008D000003802402DE9F041904605460C461E4680
:1008E000FFF7AEFE0746B8F1000F2AD1C4F3074860
:1008F0002968B8F1010F18D08A69D24392B2224216
:1009000014BF01230023CBB1701CF2D026B1FFF736
:1009100097FEC01B8642EBD20122002385F83520CA
:1009200085F834300320BDE8F0814B69DB439BB28E
:10093000234214BF01230023002BE5D10020BDE892
:10094000F081C4F307482968B8F1010F12D08A6911
:10095000D24392B222420CBF01230023002BEDD0E0
:10096000721CF1D0002ED7D0FFF76AFEC01B864262
:10097000E9D2D1E74B69DB439BB223420CBF012391
:100980000023EBE7704700BF002869D0F8B590F866
:100990003530044603F0FF02002B4CD02268314D65
:1009A000022384F83530136823F00103136000F04C
:1009B00067FD2D4A61682368A2FB0062920CA94280
:1009C0005A6023D84900B0FBF1F0C0F30B010132AB
:1009D00003291A6298BF042004F1100146C9E56991
:1009E000D4F820E0E768D86139434EEA0500324385
:1009F00018609960DA601A68002142F0010201254E
:100A00001A600846A16384F83550F8BD4FF4967516
:100A1000164FA66805FB02F2A7FB025292090132AB
:100A20001A626EB901EB4101B0FBF1F0C0F30B02A9
:100A30009AB90120D0E780F83420FFF7A3FFADE793
:100A400001EB810101EB8101B0FBF1F0C0F30B027E
:100A5000002AEED040F44040BEE740F40040BBE73F
:100A600001207047A086010083DE1B43D34D621036
:100A700090F83530DBB2012B70B5044601D002206E
:100A800070BD0D4609B116460AB9184670BD1A4622
:100A9000104942F21073FFF71DFF0028EFD194F8C0
:100AA0003430012BEBD023681A68122122F4006243
:100AB0001A6084F83510A06366851A68656242F48E
:100AC000806226851A605A6884F8340042F4E06235
:100AD0005A6070BD0200100090F83530DBB2012B77
:100AE00070B5044601D0022070BD0D4609B116460E
:100AF0000AB9184670BD1A46104942F21073FFF742
:100B0000E9FE0028EFD194F83430012BEBD02368B4
:100B10001A68222122F400621A6084F83510A0635A
:100B200066851A68656242F4806226851A605A6892
:100B300084F8340042F4E0625A6070BD0200100094
:100B4000704700BF704700BF704700BF704700BFCD
:100B500070B503689969CD0782B0024624D59969BA
:100B60004C0758D558695C6859695D680006C1F33F
:100B7000800140F1A980660540F1A680002940F07F
:100B8000A580516A481C506209781961518D01395C
:100B900089B25185528D92B2002A40F093805A68F2
:100BA00022F480625A608DE05E6959685C699D69D3
:100BB000B607C1F3402104F0100405F0040522D467
:100BC00014B1002940F0C68058695C685969002D4D
:100BD00060D006065D68C1F3800140F19680600533
:100BE00040F19380002940F09280518D89B2002914
:100BF00068D0516A481C506209781961538D013BD5
:100C00009BB253855EE00029DED05A6900929B6951
:100C10000093009B56E05C695D6859695E686406F4
:100C2000C1F380014CD56C054AD5002972D0B105BD
:100C300048D5518D89B2032900F0A180518D89B228
:100C4000022933D11968506A41F4007119601B6997
:100C5000411C51620370538D516A1068013B9BB275
:100C600053850369481C50620B70538D1168013B1A
:100C70009BB253854B6823F440734B6092F8353038
:100C8000422B4FF0010382F8353010465FD0FFF75A
:100C900059FF17E046065D68C1F3800130D5600555
:100CA0002ED500292ED1518D89B259B1516A1B69B7
:100CB000481C50620B70538D013B9BB2538501E081
:100CC0000029B4D102B070BD0029FBD0AD05F9D523
:100CD000518D89B200298CD1596821F4E0615960A5
:100CE000196841F40071196092F83530322B4FF0D9
:100CF000010382F8353010464FD0FFF721FFE1E7BE
:100D00000029DFD0A905DDD5CDE70029DAD0A90576
:100D1000D8D56AE7418D89B20329C7D8023901299C
:100D20007FF63DAF5968446A21F4E06159601B6960
:100D3000611C41622370438D013B9BB2438590F857
:100D40003530422B4FF0010380F835309FD1FFF74B
:100D5000FDFEB7E7596821F4E061596059690191D6
:100D6000196841F00101196001991968012421F401
:100D70008061196080F8354001F0C4FEA2E719686F
:100D8000506A21F4806119601B69411C5162037033
:100D9000538D013B9BB2538594E7FFF7D5FE91E756
:100DA000704700BF03685A69596810B50446D005FA
:100DB00001D5CA0541D45A695968900501D5CA05BB
:100DC00033D45A695968500501D5CA051AD45A69ED
:100DD0005968100501D5CA050CD4A26B4AB101228D
:100DE00084F835201A6822F4006220461A60FFF762
:100DF000D7FF10BDA26B6FF4006142F00802A2633E
:100E00005961EAE79869628D94F83510C00792B28B
:100E1000C9B202D40AB9122917D0A26B6FF480614B
:100E200042F00402A2635961D1E7A26B6FF4007132
:100E300042F00202A2635961C3E7A26B6FF48071B2
:100E400042F00102A2635961B5E75A686FF480610C
:100E500022F4E0625A6059611A68012122F480622A
:100E60001A60204684F8351001F038FE2368AEE79A
:100E700090F83500704700BFF0B50368DE0783B017
:100E8000044633D5A1498A6802F00C02042A00F016
:100E9000EE808A6802F00C02082A00F0E4809C4B85
:100EA0009A4D00221A70FFF7CBFB064605E0FFF7CC
:100EB000C7FB801BC82800F2C5802B689903F6D4B5
:100EC000934B22791A706368002B00F00C81FFF7B6
:100ED000B7FB8E4D064605E0FFF7B2FB801BC82826
:100EE00000F2B0802B689A03F6D523689F072ED5B1
:100EF000864A916811F00C0F00F0AB80916801F008
:100F00000C01082900F0A180E368002B00F0DA80D2
:100F1000804B7E4D01221A60FFF792FB064605E0EA
:100F2000FFF78EFB801B642800F28C802B68774AC9
:100F30009807F5D51168F82090FAA0F02369B0FA67
:100F400080F021F0F80183400B43136023681A07F7
:100F500020D4580734D4A369CBB16C4DAA6802F0F1
:100F60000C02082A7CD0022B6B4B4FF000021A6057
:100F700000F0C780FFF764FB2C46054604E0FFF74E
:100F80005FFB401B64285DD823689B01F7D40020D9
:100F900003B0F0BD6369002B73D0604B5B4D012241
:100FA0001A60FFF74DFB064604E0FFF749FB801B84
:100FB000642847D86B6F9B07F7D523685807CAD5B5
:100FC000524B574D1A6C42F080521A641B6C03F05E
:100FD00080530193019B2B6843F480732B60FFF7D0
:100FE0002FFB064604E0FFF72BFB801B642829D863
:100FF0002B68D905F7D54B4B444D00221A70FFF7EB
:101000001FFB41F28836074604E0FFF719FBC01BBF
:10101000B04217D82B6F9A07F7D4424B227A1A7036
:10102000A368002B00F0C080FFF70AFB374D07468E
:1010300041F288362B6F9B078DD4FFF701FBC01B55
:10104000B042F7D9032003B0F0BD526856023FF515
:101050005BAF2E4A1268950723D5E268012A20D09B
:10106000012003B0F0BD4A6855027FF518AF274A4A
:10107000126890037FF53AAF6268002A7FF436AFBA
:10108000EEE7264A214D1360FFF7DAFA064604E040
:10109000FFF7D6FA801B6428D4D86B6F9F07F7D46C
:1010A0008BE71A4DF820296890FAA0F02269B0FA6F
:1010B00080F021F0F80182400A432A601A077FF588
:1010C00048AF67E7134A114D1360FFF7B9FA0646B8
:1010D00004E0FFF7B5FA801B6428B3D82B689907A2
:1010E000F7D4236833E7FFF7ABFA084D064604E070
:1010F000FFF7A6FA801BC828A4D82B689B03F7D457
:10110000F3E6FFF79DFA064613E000BF0038024001
:10111000023802400000474260004742800E4742CA
:101120000070004070380240FFF78AFA801B642884
:1011300088D82B68244A9901F6D447F6C07797FAE5
:10114000A7F74FF44036B7FA87F796FAA6F64FF0AE
:101150007060B6FA86F690FAA0F0A36A656AD4F8D1
:1011600020C0D4F81CE0E16AB0FA80F05B0805FA10
:1011700007F4013B4CEA0E052C43B3408140234366
:1011800012480B430121536001601446FFF758FADF
:10119000054605E0FFF754FA401B64283FF652AFBE
:1011A00023689A01F6D5F2E6FFF74AFA064D07469C
:1011B00041F288362B6F98077FF5CDAEFFF740FAE6
:1011C000C01BB042F6D93DE70038024060004742FC
:1011D0007C4A136803F00F038B422DE9F0410C4663
:1011E000054609D2CBB21370136803F00F038B428C
:1011F00058D00120BDE8F08103689A0706D57248EF
:10120000AA68816821F0F0010A438260DF0727D5D0
:101210006B68012B79D09A1E012A6B4A126840F242
:1012200087809107E5D5684EB26822F00302134328
:10123000B360FFF705FA6B68012B07467CD0022BE1
:1012400000F08880032B65D041F2883804E0FFF776
:10125000F7F9C01B404565D8B36813F00C0FF6D101
:10126000584BE2B21A701B6803F00F03A342C0D1BF
:101270002B685A0706D55448EA68816821F4E05182
:101280000A4382601B0707D54F4A2969936823F4F4
:10129000604343EAC10393600F20FFF75BF800202F
:1012A000BDE8F08103689F0706D54748AA688168B2
:1012B00021F0F0010A438260DE07DAD56B68012B6A
:1012C00056D09A1E012A404A12682ED9910790D50D
:1012D0003D4CA26822F003021343A360FFF7B0F96C
:1012E0006B68012B064648D0022B54D0032B60D0EC
:1012F00041F2883704E0FFF7A3F9801BB84211D808
:10130000A36813F00C0FF6D1B2E72F4A12689603C8
:1013100089D46EE741F28834B368FFF791F9C01BB6
:10132000A042F9D90320BDE8F0819001D0D460E754
:1013300090013FF578AF5CE741F2883804E0FFF7B1
:101340007FF9C01B4045EDD8B36803F00C03042BB4
:10135000F5D185E741F2883804E0FFF771F9C01B49
:101360004045DFD8B36803F00C03082BF5D177E7CD
:10137000154A12689403ABD43BE741F2883704E086
:10138000FFF75EF9801BB842CCD8A36803F00C03CA
:10139000042BF5D16CE741F2883704E0FFF750F9F0
:1013A000801BB842BED8A36803F00C03082BF5D10C
:1013B0005EE741F28835A368FFF742F9801BA84237
:1013C000F9D9AFE7003C0240003802401C498B6865
:1013D00003F00C03042B31D0082B2DD14A6830B414
:1013E0004D6802F03F0447F6C0734A68690293FAF9
:1013F000A3F347F6C07000EA02004ABF1149124A3F
:10140000B1FBF4F20E49B3FA83F320FA03F058BFAC
:10141000B2FBF4F202FB00F34FF44032486892FA58
:10142000A2F200F44030B2FA82F2D0400130400023
:1014300030BCB3FBF0F07047034870470148704779
:101440000038024000127A000024F40010B5FFF7C3
:10145000BDFF084BF0229B6892FAA2F203F0F00362
:10146000B2FA82F2044C0549D340E35CD8400860EC
:1014700010BD00BF0038024028560008A00100201F
:1014800008B5FFF7E3FF074B4FF4E0529B6892FA71
:10149000A2F203F4E053B2FA82F20349D340CB5CE8
:1014A000D84008BD003802402856000808B5FFF7AC
:1014B000CDFF074B4FF460429B6892FAA2F203F40F
:1014C0006043B2FA82F20349D340CB5CD84008BDF6
:1014D0000038024028560008704700BF0368012208
:1014E000186A8A4020EA020010B41862196A094C8E
:1014F0000A43A3421A6207D01A685DF8044B42F00F
:10150000010200201A6070475A6C42F400425A648B
:10151000F2E700BF00000140264A0368904270B421
:1015200034D0B0F1804F20D0A2F57C4290421CD044
:1015300002F58062904218D002F58062904214D089
:1015400002F59A32904214D002F58062904210D097
:1015500002F5806290420CD08C680A680360012317
:10156000C462826270BC436170474A6823F07003B2
:101570001343CA688C68096823F4407313430360FB
:101580000123C462816270BC436170474A68CC68C1
:101590008E680D68096923F07003134323F44073C8
:1015A000234303600123C6628562016370BC43610B
:1015B000704700BF00000140C0B190F8393010B54D
:1015C00003F0FF02044663B12146022351F8040BE5
:1015D00084F83930FFF7A0FF012384F83930002068
:1015E00010BD80F83820FFF777FFEDE70120704746
:1015F0002DE9F0410468C7682369C569D0F810C0B7
:101600008268416923F4405E4EEA07070646806916
:101610002761E3684CEA020223F416430A4323F0ED
:101620000C032A431343E360636923F440730343C9
:10163000B5F5004F6361514B39D09C4200F0818079
:1016400003F580639C427CD0FFF71AFF75684C4F0E
:1016500000EB800000EB8000AD00B0FBF5F5FFF77C
:101660000FFFA7FB053572686D0900EB800000EBEA
:10167000800092002D01B0FBF2F8FFF701FF7168C6
:1016800000EB800000EB80008900B0FBF1F1A7FBCC
:1016900001314909642202FB118212013232A7FB97
:1016A0000223C3F343132B43A360BDE8F0819C42A4
:1016B00025D003F580639C4221D0FFF7E1FE7568D9
:1016C0002F4F00EB800000EB80006D00B0FBF5F5C4
:1016D000FFF7D6FE726800EB800000EB800052003E
:1016E000B0FBF2F8FFF7CCFEA7FB053571686D097A
:1016F00000EB80002D0100EB80004900C5E7FFF7FB
:10170000D5FE75681E4F00EB800000EB80006D0079
:10171000B0FBF5F5FFF7CAFE726800EB800000EB46
:1017200080005200B0FBF2F8FFF7C0FEA7FB0535C2
:1017300071686D0900EB80002D0100EB800049000D
:10174000A3E7FFF7B3FE75680D4F00EB800000EBD9
:101750008000AD00B0FBF5F5FFF7A8FEA7FB05354F
:1017600072686D0900EB800092002D0100EB800093
:10177000B0FBF2F8FFF79AFE81E700BF00100140CE
:101780001F85EB51704700BF50B338B590F8393022
:10179000044603F0FF02F3B12268022384F83930D3
:1017A000D36823F40053D3602046FFF721FF23685A
:1017B0001A6922F490421A615A6922F02A025A6187
:1017C000DA68002142F400520125DA600846E1633C
:1017D00084F8395038BD80F83820FFF7D3FFDBE7B5
:1017E000012070471848836803F00C03042B29D0AC
:1017F000082B0AD0154B144A154892681549C2F3B4
:101800000312825CD3400B6070474368416813F455
:10181000800F436818BF104801F03F020CBF0B490E
:10182000B0FBF2F1C3F3881308BFB1FBF2F101FB87
:1018300003F2054B5B68C3F3014301335B00B2FB6A
:10184000F3F3D8E7044BD6E7003802400024F40055
:1018500038560008A001002000127A00204B214ACF
:10186000196C30B541F0805119641B6C95B003F0D0
:1018700080530193019B136823F4404343F40043D6
:101880001360136803F4404302930123029A089300
:1018900000B105230993C0210423082202244FF438
:1018A000800508A8109312930E940F95119113922E
:1018B000FFF7E2FA034610B1002015B030BD4FF437
:1018C00080520F2503A803210494059307930395E1
:1018D0000692FFF77DFCB0FA80F0400915B030BDEC
:1018E0000038024000700040224B234A196CF0B5CA
:1018F00041F0805119641B6C95B003F08053019343
:10190000019B136823F4404343F4004313601368BE
:1019100003F4404302934FF0010E08230024C0213A
:10192000042203261027022508A810931393DDF83C
:1019300008C00896CDF82CE009940F940C970E95EA
:1019400011911292FFF798FA034610B1204615B094
:10195000F0BD4FF4805231460F2403A8049505933F
:10196000079303940692FFF733FCB0FA80F0400926
:1019700015B0F0BD003802400070004008B50120ED
:10198000FFF76CFF00B108BDFFF768FF0028FAD130
:10199000FFF7AAFF0028F6D1FEE700BF174A184854
:1019A000D2F8883070B543F47003164CC2F8883012
:1019B0002368154E154D002143F001032360A160FB
:1019C000236823F0847323F48033236066602368E4
:1019D0004FF0006623F480232360E1609660056089
:1019E000FEF70CFEFFF7CAFF236A43F008032362E9
:1019F000236A23F00803236270BD00BF00ED00E0FE
:101A0000A001002000380240103000240024F4001F
:101A100080B582B000AF78607B68064A1A60002308
:101A2000002B02D0786801F040FF7B681846083729
:101A3000BD4680BD1857000880B582B000AF786001
:101A40007868FFF7E5FF786801F02FFF7B6818469C
:101A50000837BD4680BD00BF80B582B000AF78605A
:101A60007B68084A1A607B681846FFF7D1FF00239D
:101A7000002B02D0786801F018FF7B681846083701
:101A8000BD4680BD0857000880B582B000AF7860C1
:101A90007868FFF7E1FF786801F007FF7B68184678
:101AA0000837BD4680BD00BF80B588B002AFF86082
:101AB0007B600B46FB721346BB72F96897F90B20EB
:101AC00097F90A30084611461A4601F095FCFB6862
:101AD000164A1A60FB6854331846796801F000F919
:101AE000FB6803F164013B6A7A6802FB03F3084672
:101AF000194601F0F5F8FA680D4B3B6100237B6154
:101B0000002300931046F96807F110030CCB00F096
:101B1000D9F9FB687A685A67FB683A6A9A6700BF26
:101B2000FB6818461837BD4680BD00BFD856000870
:101B3000B11D000880B582B000AF78607B68144AA0
:101B40001A607B6818460021002201F09BFC7B682C
:101B500018460021012201F095FC00BF7B68643328
:101B6000184601F0D5F87B685433184601F0D0F8D8
:101B70007B681846FFF770FF0023002B02D07868BF
:101B800001F093FE7B6818460837BD4680BD00BF54
:101B9000D856000880B582B000AF78607868FFF74B
:101BA000C9FF786801F081FE7B6818460837BD469A
:101BB00080BD00BF80B582B000AF78607B685433D1
:101BC000184600F0B5F9034618460837BD4680BDF3
:101BD00080B483B000AF7860012318460C37BD464F
:101BE0005DF8047B704700BF80B582B000AF7860BD
:101BF0007B685433184600F0AFF90346184608379F
:101C0000BD4680BD80B582B000AF786039607B682A
:101C100003F164023B68DBB21046194600F0A8F9F4
:101C2000786800F021F93B6818460837BD4680BD4A
:101C300080B584B000AF786039603B68002B1FD05E
:101C40003B68FB600AE07B6803F16401FB685A1C97
:101C5000FA601B780846194600F08AF9FB681B7881
:101C6000002BF0D17B68643318460A2100F080F91C
:101C7000786800F0F9F8FA683B68D31A013300E09D
:101C8000002318461037BD4680BD00BF0EB42DE9B5
:101C9000F04189B002AF7860694688467968496F3B
:101CA0004E1E7E613146013108464FF00001CD00E5
:101CB00045EA5075C4003146013108464FF0000135
:101CC000CB0043EA5073C200334601330733DB08CD
:101CD000DB00ADEB030D02AB00333B613A697B687F
:101CE0005B6F104600211A4602F078FC0023FB606F
:101CF00007F13803BB603B691846796BBA6803F09B
:101D000017F9F8607B685B6F1A46FB689A420BDA3A
:101D10007B685C6FFB6800930C480D495D2223468D
:101D200001F0D4FB002308E03A69FB6878681146AB
:101D30001A4600F00FF8F860FB68C54618461C37D5
:101D4000BD46BDE8F04103B0704700BF48560008EB
:101D50008456000880B586B000AFF860B9607A603C
:101D6000BB68002B1FD07B68002B1CD0BB687B613D
:101D70007A697B6813443B610AE0FB6803F1640104
:101D80007B695A1C7A611B780846194600F0F0F806
:101D90007A693B699A42F0D1F86800F065F87A698F
:101DA000BB68D31A00E0002318461837BD4680BD33
:101DB00090B583B000AF78607B680433184601F0BB
:101DC000C5FA0346002B14BF01230023DBB2002B0E
:101DD0000DD07B6803F154047B680433184601F08E
:101DE00099FA0346DBB22046194600F0C1F800BF5D
:101DF0000C37BD4690BD00BF90B583B000AF786092
:101E000020E07B686433184600F092F80346002B0C
:101E100014BF01230023DBB2002B0CD07B681C1DF8
:101E20007B686433184600F0B3F803462046194631
:101E300001F07EFA06E07B6818460021012201F0DD
:101E400021FB0CE07B680433184601F089FA034655
:101E5000002B14BF01230023DBB2002BD1D100BF24
:101E60000C37BD4690BD00BF80B586B002AF78602C
:101E70007B680433184601F073FA0346002B14BF45
:101E800001230023DBB2002B16D07B68184600210B
:101E9000012201F0F7FA7868FFF7AEFF7A68084B85
:101EA000BB600023FB60012300931046796807F1B3
:101EB00008030CCB00F006F800BF1037BD4680BD0C
:101EC000F91D000880B584B000AFF860B9603946EC
:101ED00081E80C003B68002B04D17B6803F0010310
:101EE000002B19D0BB68002B16D03A7E13465B003E
:101EF0001344DB002033FA6813441846B9683B46A4
:101F00000CCB00F067F8FB681A1D3B7E10461946A3
:101F1000012201F0A5F907E0FB681A1D3B7E10467F
:101F20001946002201F09CF91037BD4680BD00BF64
:101F300080B483B000AF78607B685A687B689B6828
:101F40009A4214BF01230023DBB218460C37BD466A
:101F50005DF8047B704700BF80B582B000AF786049
:101F6000786800F015F8034618460837BD4680BD6E
:101F700080B582B000AF78600B46FB70FB78786864
:101F8000194600F045F87B6818460837BD4680BD05
:101F900080B485B000AF78607B681A687B689B6806
:101FA000581C7968886013441B78FB737B689B68B6
:101FB0007A68D268013AB3FBF2F102FB01F29A1A95
:101FC0007B689A60FB7B18461437BD465DF8047B3E
:101FD000704700BF80B485B000AFF860B960394683
:101FE00081E80C00FB68BA681A60FB6804331A4683
:101FF0003B4693E8030082E80300FB68034A5A610A
:102000001437BD465DF8047B704700BF55200008BB
:1020100080B483B000AF78600B46FB707B681A68B1
:102020007B685B68581C796848601344FA781A70BA
:102030007B685B687A68D268013AB3FBF2F102FB15
:1020400001F29A1A7B685A6000BF0C37BD465DF8F2
:10205000047B704780B584B000AF786039607B68DE
:10206000FB603B68BB60BB685B6803F00103002B4F
:1020700002D1BB681B680AE0BB685B685B101A464C
:10208000FB6813441B68BA68126813441B68BA687B
:10209000526852101146FA680A44104698471037A1
:1020A000BD4680BD80B582B000AF78607B685A685D
:1020B0007B681B68104600211A4602F08FFA7B6885
:1020C00000221A610837BD4680BD00BF80B584B0CC
:1020D00000AFF860B9607A603B60FB68BA681A606C
:1020E000FB687A685A60FB683A689A60F868FFF79C
:1020F000D9FFFB680022DA60FB6800221A751037EE
:10210000BD4680BD80B584B000AFF860B9607A602C
:102110003B60BB680348F9681A4602F0D5FD1037EA
:10212000BD4680BD205700080FB480B500AFB86829
:1021300002F0CAFDBD46BDE8804004B0704700BF54
:1021400080B584B000AF786039600023FB603868E8
:1021500002F0B3FEB86017E07A68FB6813441A789F
:102160003B681B789A420CD17A68FB681344184686
:102170003968BA6802F0A9FE0346002B01D1012399
:1021800009E0FB680133FB607A68FB6813441B7845
:10219000002BE1D1002318461037BD4680BD00BF9B
:1021A00080B582B000AF7860234B1B7803F0020348
:1021B000002B18D1204B1B7803F00103002B03D018
:1021C0001D4B1B6A002B0ED11B4B1B6E002B08D026
:1021D000194B1B6E78681946FFF7B2FF0346002BB8
:1021E00001D0012300E00023002B20D001F0F4F9FE
:1021F0000246114B1A63104B1B6BB3F1FF3F0AD120
:102200000E4B1B689B6818460D490E4A02F0CEF82B
:10221000012001F04DFF084B5B6C002B05D0064BF5
:102220005B6C054A926C10469847012300E000233E
:1022300018460837BD4680BD640500200402002012
:102240005057000864570008B0B586B002AF7860F8
:10225000396001F0C1F90246444B5A63434B5B6B52
:10226000B3F1FF3F0AD1424B1B689B6818464149B6
:10227000414A02F09BF8012001F01AFF3B4BDB6C56
:10228000002B06D0394B1B6DFB60384BDB6CF868BC
:1022900098473B68002B03DA786800F0A5F90CE05A
:1022A0003B68002B03DD786800F004FA05E03B682A
:1022B000002B02D1786800F067F92C4B9B69013341
:1022C0002A4A9361294B5B6D0133284A5365274B9A
:1022D0005B78002B2AD0264B1B689D68234B5A6BDA
:1022E000224B1B6BD41A214B5A6B204B1B6BD31AFE
:1022F000184601F039FC02460B46104619464FF0CD
:1023000000021E4B01F0D0FD02460B46CDE9002332
:1023100028461B49224602F049F8154B1B689B686A
:1023200018480121022202F0F9F815E00F4B5B6D0D
:102330000E4A926DB3FBF2F102FB01F29B1A002BE5
:102340000AD10B4B1B689B680E480121022202F048
:10235000E5F8064B00225A65054B1B689B6818463A
:1023600001F068FF1037BD46B0BD00BF6405002016
:10237000040200205057000884570008000059400C
:10238000A4570008BC570008B0B584B004AF254B73
:102390009B69002B43D0244B1B689868214B9D6997
:1023A000204B9B69012B01D1204C00E0204C1D4BA0
:1023B000D9691C4B1A6A1B4B5B6A0091019202930C
:1023C0001C492A46234601F0F1FF174B1B689D6804
:1023D000144BDA6A134B9B6AD41A124BDA6A114B0C
:1023E0009B6AD31A184601F0BFFB02460B46104603
:1023F00019464FF00002104B01F056FD02460B4605
:10240000CDE9002328460D49224601F0CFFF064BB7
:102410001B689B680A480121022202F07FF8BD4632
:10242000B0BD00BF6405002004020020C0570008B2
:10243000C4570008C857000800005940A4570008B6
:10244000BC57000880B500AF184B00225A64174BE8
:1024500000229A64154B0022DA64144B00221A659C
:10246000124B9A68114BDB691344104A93600F4B6F
:10247000DA680E4B1B6A13440C4AD3600B4B1A6983
:102480000A4B5B6A1344094A1361084B5A68074BAD
:102490009B691344054A536005480021202202F03D
:1024A0009DF8024B00225A6580BD00BF64050020E4
:1024B0007C05002080B582B000AF786039602C4B7D
:1024C000DB6D002B0AD02A4BDB6D38681946FFF70D
:1024D00037FE0346002B01D1012300E00023002B2F
:1024E00000D042E0224B1B7803F00103002B04D004
:1024F0001F4BDB68002B00D037E0FFF7A3FF1D4B1D
:102500001B689B6818461C493A6801F04FFF01F0B0
:1025100063F80246164B9A62154B9B6AB3F1FF3F74
:102520000AD1144B1B689B6818461449144A01F0E1
:102530003DFF012001F0BCFD7B68984701F04CF89D
:1025400002460B4BDA620A4BDB6AB3F1FF3F0AD15A
:10255000084B1B689B68184608490A4A01F026FF89
:10256000012001F0A5FDFFF70FFF0837BD4680BD34
:102570006405002004020020F857000850570008A6
:10258000085800082858000880B582B000AF78606D
:10259000114B5B78002B10D0104B1B689A680E4BC8
:1025A0001B6C002B02D00C4B1B6C00E00C4B10463C
:1025B0000C497A6801F0FAFE06E0084B1B689B683C
:1025C0002E20194601F028FF034BDB690133024A34
:1025D000D3610837BD4680BD640500200402002099
:1025E000C05700084858000890B585B002AF786021
:1025F0002A4B5B78002B17D0294B1B689968274B17
:102600001B6C002B02D0254B1C6C00E0254C234B8F
:102610009A6B224BDB6B00920193084622497A6841
:10262000234601F0C3FE31E01D4B1B689B6846202A
:10263000194601F0F1FE194B5B6D0133174A5365E2
:10264000164B5B6D002B0AD0154B1B689B68174817
:102650000121022201F062FF104B00225A65104B4B
:102660001B6899680D4B1B6C002B02D00B4B1C6C2C
:1026700000E00C4C094B9A6B084BDB6B009201930A
:1026800008460B497A68234601F090FE034B1B6A0B
:102690000133024A13620C37BD4690BD6405002029
:1026A00004020020C057000854580008BC57000816
:1026B0006858000880B582B000AF7860114B5B7835
:1026C000002B10D0104B1B689A680E4B1B6C002B14
:1026D00002D00C4B1B6C00E00C4B10460C497A6886
:1026E00001F064FE06E0084B1B689B6873201946E6
:1026F00001F092FE034B5B6A0133024A53620837D2
:10270000BD4680BD6405002004020020C0570008BB
:102710008058000880B582B000AF7860054B1B6818
:102720009B68184604497A6801F040FE0837BD46A8
:1027300080BD00BF04020020D858000880B584B0D6
:1027400000AF786039600023FB600123FB60C4E0C8
:10275000FB689B003A6813441B68644819460222D0
:1027600002F0B3FB0346002B18D1FB685A1C7B68B0
:102770009A4207DB3B681B681846FFF7CBFF012036
:1027800001F096FCFB6801339B003A6813441B6818
:10279000574A1366FB680133FB609BE0FB689B00B4
:1027A0003A6813441B6853481946022202F08DFB15
:1027B0000346002B18D1FB685A1C7B689A4207DB42
:1027C0003B681B681846FFF7A5FF012001F070FC6D
:1027D000FB6801339B003A6813441B68444AD36585
:1027E000FB680133FB6075E0FB689B003A681344AB
:1027F0001B6841481946022202F067FB0346002B82
:1028000007D13B4B1B7843F00103DAB2384B1A7007
:1028100060E0FB689B003A6813441B683748194620
:10282000022202F052FB0346002B06D1304B5B78AC
:102830000133DAB22E4B5A704CE0FB689B003A68C9
:1028400013441B682E481946022202F03EFB034641
:10285000002B07D1264B1B7843F00203DAB2244B3E
:102860001A7037E0FB689B003A6813441B682548E0
:102870001946022202F029FB0346002B07D13B68D0
:102880001B681846FFF746FF002001F011FCFB68AB
:102890009B003A6813441B681B481946022202F049
:1028A00014FB0346002B00D11CE0184B1B689968F1
:1028B000FB689B003A6813441B68084614491A4693
:1028C00001F074FD3B681B681846FFF723FF0120E9
:1028D00001F0EEFBFB680133FB60FA687B689A420B
:1028E000FFF636AF1037BD4680BD00BF045A000862
:1028F00064050020085A00080C5A0008105A000805
:10290000145A0008185A00081C5A00080402002033
:10291000205A000880B400AF054BDB68002B0CBFC9
:1029200001230023DBB21846BD465DF8047B7047E7
:1029300064050020B0B584B002AF786039605748B4
:102940004FF4E13100F096FD55484FF4E13100F0CD
:1029500091FD54480021C82201F040FE514B48220D
:102960009A6500F039FE02464E4B5A664D4B5B6E3F
:10297000B3F1FF3F0AD14C4B1B689B6818464B498B
:102980004B4A01F013FD012001F092FB7868396891
:10299000FFF7D4FE434B5B780133DAB2414B5A70F8
:1029A00044484549FFF786FD3E4B1B7803F0020380
:1029B000002B67D1FFF746FD00F00EFE0246394BB3
:1029C0009A66384B9B6EB3F1FF3F0AD1364B1B68BA
:1029D0009B6818463549394A01F0E8FC012001F0AE
:1029E00067FB314B1B6899682E4B5A682D4B5B680F
:1029F000012B01D1324B00E0324B0846324901F045
:102A0000D5FC294B1B689D68264B9A6E254B5B6E47
:102A1000D41A244B9A6E234B5B6ED31A184601F0DE
:102A2000A3F802460B46104619464FF00002274B0A
:102A300001F03AFA02460B46CDE900232846244924
:102A4000224601F0B3FC184B1B689968154B5A6974
:102A5000144B5B69012B01D1194B00E0194B08465F
:102A60001C4901F0A3FC104B1B6899680D4B9A6838
:102A70000C4BDC680B4B1B69009308461649234638
:102A800001F094FCFFF746FF0346002B0CBF012327
:102A90000023DBB218460837BD46B0BD0C04002049
:102AA0009003002064050020040200205057000815
:102AB0003C5A00083D2F0008505A0008685A000888
:102AC000C0570008C45700087C5A0008000059404D
:102AD000A4570008905A0008A45A000880B582B094
:102AE00000AF78607B681B68044A934202D10448B7
:102AF00000F064FA0837BD4680BD00BF00540040B6
:102B00008804002080B582B000AF78607B681B68C5
:102B1000044A934202D1044800F05CFA0837BD46EB
:102B200080BD00BF005400408804002080B584B000
:102B300002AF786039607B68012B24D13B684FF687
:102B4000FF7293421FD104230093002301930F4887
:102B500009210A224FF40073FEF7A6FF0B480C4927
:102B60000C4A00F09DFE0A230093002301930A48BB
:102B7000022103224FF40063FEF796FF0648044942
:102B8000044A00F08DFE0837BD4680BD900300204A
:102B9000351B0008980100200C04002080B500AF10
:102BA00001204FF6FF71FFF7C1FF80BD80B500AF78
:102BB0000148FDF7CDFF80BD3C03002080B500AF8C
:102BC0000148FEF7EFF880BD3C03002080B58AB0D5
:102BD00000AF78603D4A3D4B1B6B43F0020313632B
:102BE0003A4B1B6B03F002033B613B69374A374B9F
:102BF0001B6B43F002031363344B1B6B03F00203A4
:102C0000FB60FB68314A314B1B6C43F400131364C7
:102C10002E4B1B6C03F40013BB60BB684FF4807336
:102C20007B611223BB610123FB6102233B6204230E
:102C30007B6207F1140326481946FDF75DFD4FF44A
:102C400000737B6104237B6207F11403204819465B
:102C5000FDF752FD7B681F4A1A607B684FF4804283
:102C60001A617B681C4A5A607B6800225A617B6843
:102C70004FF480429A607B680022DA617B68002210
:102C80001A627B681E22DA607B6800229A6178688B
:102C9000FDF77AFE0346002B05D1104824210022BF
:102CA0000023FFF72FFA202001210022FDF7E0FC8E
:102CB0002020FDF713FD1F2002210022FDF7D8FC84
:102CC0001F20FDF70BFD2837BD4680BD00380240B0
:102CD0000004024000540040801A0600C45A000854
:102CE00080B582B000AF786039603B68184600F06C
:102CF000EFFD02467B681A607B683A68DA607868A4
:102D000000F01AF800BF7B6818460837BD4680BD42
:102D100080B582B000AF78607B681B68002B04D060
:102D20007B681B68184600F0B9FD00BF7B68184639
:102D30000837BD4680BD00BF80B582B000AF786067
:102D40007B6800225A607B6800229A607B681A6860
:102D50007B68DB68104600211A4601F03FFC00BF8B
:102D60000837BD4680BD00BF80B584B000AF786035
:102D7000114BFB6011484021114A124BFFF7A6F995
:102D8000FB680E4A1A61FB680F4ADA60FB68DB6871
:102D900018464FF4E13100F06DFBFB680B4A9A6175
:102DA000FB680B4A1A60FB681B681846FFF70EFFAA
:102DB0001037BD4680BD00BF880400204C050020B0
:102DC000CC0400200C0500209003002000801D444E
:102DD0003C03002080B584B000AF524BFB60012360
:102DE000FB7264237B605048FEF742F80346012BD8
:102DF0000CBF01230023DBB2002B00F08D80FB68A9
:102E00001B68184649490122FDF766FE0346FB721E
:102E10000223FB720123002B63D0FB681B681B6835
:102E20009B6903F00403002B01D0012300E0002381
:102E3000002B70D03D4B1B780B2B1DD00C2B35D0AD
:102E40000A2B00D067E0FB681B681846FEF710F8F5
:102E50000346122B0CBF01230023DBB2002B0BD047
:102E6000334B48221A70FB681B6818463049012210
:102E7000FDF7FEFD0346FB72FB681B681846FDF775
:102E8000F7FF0346122B0CBF01230023DBB2002BFC
:102E90000BD0274B34221A70FB681B681846244954
:102EA0000122FDF7E5FD0346FB7219E0FB681B6894
:102EB0001846FDF7DDFF0346122B0CBF012300234C
:102EC000DBB2002B0BD01A4B33221A70FB681B6845
:102ED000184617490122FDF7CBFD0346FB7200BFE0
:102EE00019E0FB7A002B16D1FB681B681B685B6935
:102EF00003F00203002B01D0012300E00023002B8C
:102F000009D00C480321FFF70FF9084B1B780A483A
:102F10001946FFF709F900E065E718461037BD4686
:102F200080BD00BF880400203C03002084030020F3
:102F300078030020085B0008945B000880B582B02D
:102F400000AF0020FFF710FF1748FFF729F90346ED
:102F5000012B0CBF01230023DBB2002B13D013483D
:102F600001F016FF0346FB7197F90730002B03D1E0
:102F7000FFF730FF0346FB7197F907300A481946FF
:102F8000FFF762F90DE00A4B1B7803F00203002BF8
:102F900007D0084B1B689B6818460749024A01F096
:102FA00005FA0837BD4680BDA85B0008D0050020A3
:102FB0006405002004020020CC5B000880B483B0CC
:102FC00000AF78607B6801225A600C37BD465DF81F
:102FD000047B704780B483B000AF78607B680122C7
:102FE0009A600C37BD465DF8047B7047F8B5154D07
:102FF00055F820206AB18601134FBB591968044661
:10300000480612D41A68910604D41A68120748BFF9
:103010005B68F8BD0D4B55F824001B6800219847EC
:10302000BB596FF020021A60EFE7084B10461B688F
:1030300001219847BB596FF040021A601A68910647
:10304000E3D5E7E72C060020540600204C060020BC
:103050000020FFF7CBBF00BF0120FFF7C7BF00BFB5
:103060000520FFF7C3BF00BF2DE9F04F0E4685B026
:10307000044608465D49154600F092FA5C49074649
:10308000284600F08DFA0146384600F077FA411CD8
:10309000074600F0A580574B984200F0818003F569
:1030A0008063984263D0A3F55043984213D1524BAA
:1030B0001A6A42F400321A621A6A22F400321A6260
:1030C0001A6C42F400321A641B6C03F4003302934E
:1030D000029A012363603046444900F02DFA2846E5
:1030E000434900F029FA721C03D03046012100F058
:1030F0008BFB6B1C03D02846012100F085FB616827
:10310000DFF810816576890108EB01000246002393
:103110004FF4165E2676C4F808E0E360236163612D
:1031200000F1100C42F8083F013548F80170C0F872
:1031300004E0C361C384C38553609360CCF8083056
:103140002AD001360CBF04230C23CCF80430FEF740
:103150001BFB10B1294800F0B9F96368284A9B01AC
:1031600058F80330934230D005B0BDE8F08F224BC1
:103170005A6A42F020025A625A6A22F020025A62C7
:103180005A6C42F020025A645B6C03F020030393F4
:10319000039B052363609EE70823CCF80430D6E741
:1031A000154B5A6A42F010025A625A6A22F0100213
:1031B0005A625A6C42F010025A645B6C03F01003BE
:1031C00001930023019A636085E70E4B0E48214668
:1031D0001C2201241C6001F0F6F905B0BDE8F08F57
:1031E0000A480B49C82200F065F974E7785D0008C9
:1031F000245D00080010014000380240545C0008C3
:103200000044004050060020E4080020D45B000881
:10321000F05B00085406002008B54268074B816047
:1032200003EB821318465960FEF7AEFA00B908BDE9
:103230000348BDE8084000F049B900BF540600202B
:10324000545C000810B4044B44680448196040F80A
:1032500024205DF8044B70474C0600202C0600200B
:1032600038B54368012B46D0052B41D0CBB10020A7
:103270000446D2B19B01002933D1214AD258D368E8
:1032800065B243F02003D36001462846FDF71AF8E3
:103290006D0904F0070401231A4AA34042F82530BF
:1032A00038BD19482524002AE4D1154A9B01D3587A
:1032B000DA6879B922F02002DA60DB681A061DD4D8
:1032C0006309203304F0070401220E49A24041F8AB
:1032D000232038BD22F08002DA60DB689B06EFD540
:1032E00038BD074AD258D36865B243F08003CAE7B5
:1032F00006484724BDE706482624BAE738BD00BF84
:103300005406002000E100E0513000086130000860
:10331000593000084368054A9B01D25813689B0640
:10332000FCD55068C0F30800704700BF5406002069
:103330004368054A9B01D25813681B06FCD5C1F3AC
:1033400008015160704700BF540600204368034ADB
:103350009B01D3581868C0F34010704754060020F2
:103360004368034A9B01D3581868C0F3C0107047E4
:1033700054060020054B186800B17047044A0549FF
:10338000116001221A60FCF7E5BF00BF9008002021
:1033900054080020000C004008B5064B186830B9EE
:1033A000054A0649116001221A60FCF7D3FF034B5E
:1033B000586A08BD9008002054080020000C004006
:1033C000034B1B685863DA6842F00202DA60704708
:1033D00054080020034B1A68D36823F00203D3601B
:1033E000704700BF54080020024B1B686FF00202B8
:1033F0001A6170475408002010B5044600F016F812
:10340000014B2360204610BD0857000801EB410125
:10341000C90043185A6B1B6A2AB11BB101442431FD
:10342000184610477047002BFCD0184738B50446A3
:103430000E4B0360251D00234FF41650206563607A
:103440002846A360E36023616361A3612377637708
:1034500023626363A363E364FFF706FE2846224604
:103460000349FFF7EFFE204638BD00BF185700089C
:103470000D34000838B504460D460430FFF7CCFE85
:10348000256538BD70B40C4669B102EB4203DB0020
:103490002033C5180026C15011466E610430012248
:1034A00070BCFFF7DDBE11460430224670BCFFF74A
:1034B000D7BE00BF10B40C46134601462246024850
:1034C0005DF8044B00F002B86C5C00080FB400B566
:1034D000064B83B004AA1B6852F8041BD8680192FB
:1034E00001F04EFA012000F0E3FD00BF04020020CD
:1034F00038B50D46044600F0A9F8013511D094F90D
:10350000003001330ED06368E2681B04204613606C
:10351000012100F0B5F820460021BDE8384000F058
:10352000ABB838BD024803493422FFF7C3FFEAE7CE
:103530009C550008B4550008431C10B5044619D02A
:1035400091F90030581C04D10FE011F90C3F5A1CBE
:103550000BD09C42F9D12046896800F027F920461B
:103560000021BDE8104000F04FB90348BDE810400D
:10357000FFF7ACBF10BD00BFA05C000888420AD0B6
:10358000421C09D0013106D008B50448FFF79EFF60
:103590004FF0FF3008BD704708467047B45C000824
:1035A000421C0FD008B591F900305A1C04D10AE032
:1035B00011F90C3F5A1C06D09842F9D14868411CB9
:1035C00001D008BD70470348FFF780FF4FF0FF3080
:1035D000F7E700BFC85C000808B5FFF7DDFE024B47
:1035E000A3FB0030400B08BD5917B7D1014800F0CC
:1035F0002FB900BF1C5D000838B50546FFF7CCFEAB
:103600000446FFF7C9FE001BA842FAD338BD00BF2D
:103610004FF47A7303FB00F0FFF7EEBF431C10B5C5
:10362000044608D02046002100F0C0F804F00F0442
:103630000120A04010BD034803492722FFF73AFFAD
:10364000F0E700BFCC5D0008E05D000870B50546FE
:103650004B1C0C4629700DD0C1F3031000F030F85C
:1036600006462046FFF7DAFF06F1100318366860B9
:10367000AB60EE6070BD00BF90F9000000F0C4B810
:1036800038B5054690F90000431C0C460BD0012CC0
:1036900004D00021BDE8384000F088B82146BDE8DC
:1036A000384000F083B8044804494622FFF702FF7F
:1036B00095F90000EBE700BF9C550008E05D0008AD
:1036C00000B587B0072859D8DFE800F012202E3C5B
:1036D0004A5858042D4B2E481A6B42F080021A6348
:1036E0001B6B03F080030593059B07B05DF804FB9B
:1036F000264B28481A6B42F001021A631B6B03F039
:1037000001030093009B07B05DF804FB1F4B2248A8
:103710001A6B42F002021A631B6B03F0020301935F
:10372000019B07B05DF804FB184B1C481A6B42F074
:1037300004021A631B6B03F004030293029B07B09D
:103740005DF804FB114B16481A6B42F008021A632D
:103750001B6B03F008030393039B07B05DF804FBA6
:103760000A4B10481A6B42F010021A631B6B03F0ED
:1037700010030493049B07B05DF804FB0A48FFF7AD
:10378000A5FE002007B05DF804FB00BF0038024032
:10379000001C0240000002400004024000080240F9
:1037A000000C024000100240745E000830B5431C5B
:1037B00087B005460C461BD0C5F30310FFF780FF0A
:1037C00005F00F0504F00F010C4A0123AB400193F3
:1037D00052F821500295C4F302120323C4F3C31418
:1037E00001A9039205940493FCF786FF07B030BD4E
:1037F000034804498122FFF75DFEDDE7405E0008D3
:10380000CC5D0008985E000838B5431C04460D46A0
:1038100014D0C4F30310FFF753FF04F00F04C26881
:1038200064000323A34022EA0303C360022DC3689C
:103830008CBF0025A5401D43C56038BD0248034923
:10384000A622FFF737FEE4E7CC5D0008985E00088B
:10385000036870B5DB68054698476B685B6883B1A1
:103860002A681C6853689847201A00286A680DDC8B
:1038700050681168836853600029F0D04068884719
:10388000EBE72B68BDE870409B6818472B685268CF
:103890001B691068BDE87040184700BF00F005B80C
:1038A00003460846194600F0EFBB00F075BE10B5A0
:1038B000002814BF04460124204600F065FE30B9FC
:1038C00000F008F808B900F0D7FB8047F4E710BD16
:1038D000FFF7EDBF024B1868BFF35F8F704700BF63
:1038E0009C08002081F0004102E000BF83F000430B
:1038F00030B54FEA41044FEA430594EA050F08BF8B
:1039000090EA020F1FBF54EA000C55EA020C7FEA4E
:10391000645C7FEA655C00F0E2804FEA5454D4EBCB
:103920005555B8BF6D420CDD2C4480EA020281EA95
:10393000030382EA000083EA010180EA020281EACD
:103940000303362D88BF30BD11F0004F4FEA01311F
:103950004FF4801C4CEA113102D0404261EB41012E
:1039600013F0004F4FEA03334CEA133302D05242B4
:1039700063EB430394EA050F00F0A780A4F1010470
:10398000D5F1200E0DDB02FA0EFC22FA05F28018AA
:1039900041F1000103FA0EF2801843FA05F3594190
:1039A0000EE0A5F120050EF1200E012A03FA0EFC0F
:1039B00028BF4CF0020C43FA05F3C01851EBE37139
:1039C00001F0004507D54FF0000EDCF1000C7EEB56
:1039D00000006EEB0101B1F5801F1BD3B1F5001F94
:1039E0000CD349085FEA30004FEA3C0C04F10104B3
:1039F0004FEA445212F5800F80F09A80BCF1004FDC
:103A000008BF5FEA500C50F1000041EB045141EA5D
:103A1000050130BD5FEA4C0C404141EB010111F45E
:103A2000801FA4F10104E9D191F0000F04BF014609
:103A30000020B1FA81F308BF2033A3F10B03B3F1E7
:103A400020020CDA0C3208DD02F1140CC2F10C0277
:103A500001FA0CF021FA02F10CE002F11402D8BFD5
:103A6000C2F1200C01FA02F120FA0CFCDCBF41EAA1
:103A70000C019040E41AA2BF01EB0451294330BD70
:103A80006FEA04041F3C1CDA0C340EDC04F114044D
:103A9000C4F1200220FA04F001FA02F340EA030024
:103AA00021FA04F345EA030130BDC4F10C04C4F16A
:103AB000200220FA02F001FA04F340EA030029464A
:103AC00030BD21FA04F0294630BD94F0000F83F494
:103AD000801306BF81F480110134013D4EE77FEA77
:103AE000645C18BF7FEA655C29D094EA050F08BFC3
:103AF00090EA020F05D054EA000C04BF19461046A4
:103B000030BD91EA030F1EBF0021002030BD5FEAE7
:103B1000545C05D14000494128BF41F0004130BD0F
:103B200014F580043CBF01F5801130BD01F0004563
:103B300045F0FE4141F470014FF0000030BD7FEAD6
:103B4000645C1ABF194610467FEA655C1CBF0B46D1
:103B5000024650EA013406BF52EA033591EA030FE8
:103B600041F4002130BD00BF90F0000F04BF0021E0
:103B7000704730B54FF4806404F132044FF0000513
:103B80004FF0000150E700BF90F0000F04BF00218C
:103B9000704730B54FF4806404F1320410F00045F2
:103BA00048BF40424FF000013EE700BF42004FEAED
:103BB000E2014FEA31014FEA02701FBF12F07F436A
:103BC00093F07F4F81F06051704792F0000F14BF67
:103BD00093F07F4F704730B54FF4607401F00045AB
:103BE00021F0004120E700BF50EA010208BF704702
:103BF00030B54FF000050AE050EA010208BF7047F7
:103C000030B511F0004502D5404261EB41014FF45F
:103C1000806404F132045FEA915C3FF4DCAE4FF063
:103C200003025FEADC0C18BF03325FEADC0C18BF4A
:103C3000033202EBDC02C2F1200300FA03FC20FA9B
:103C400002F001FA03FE40EA0E0021FA02F11444E8
:103C5000C1E600BF70B54FF0FF0C4CF4E06C1CEAFD
:103C600011541DBF1CEA135594EA0C0F95EA0C0F72
:103C700000F0DEF82C4481EA030621EA4C5123EAE5
:103C80004C5350EA013518BF52EA033541F4801114
:103C900043F4801338D0A0FB02CE4FF00005E1FBC7
:103CA00002E506F00042E0FB03E54FF00006E1FB11
:103CB00003569CF0000F18BF4EF0010EA4F1FF0454
:103CC000B6F5007F64F5407404D25FEA4E0E6D4194
:103CD00046EB060642EAC62141EA55514FEAC520A5
:103CE00040EA5E504FEACE2EB4F1FD0C88BFBCF521
:103CF000E06F1ED8BEF1004F08BF5FEA500E50F1D2
:103D0000000041EB045170BD06F0004646EA010197
:103D100040EA020081EA0301B4EB5C04C2BFD4EBC9
:103D20000C0541EA045170BD41F480114FF0000EC2
:103D3000013C00F3AB8014F1360FDEBF002001F030
:103D4000004170BDC4F10004203C35DA0C341BDCAA
:103D500004F11404C4F1200500FA05F320FA04F07C
:103D600001FA05F240EA020001F0004221F00041B0
:103D700010EBD37021FA04F642EB06015EEA430E23
:103D800008BF20EAD37070BDC4F10C04C4F1200553
:103D900000FA04F320FA05F001FA04F240EA020006
:103DA00001F0004110EBD37041F100015EEA430ED7
:103DB00008BF20EAD37070BDC4F1200500FA05F2F7
:103DC0004EEA020E20FA04F301FA05F243EA020376
:103DD00021FA04F001F0004121FA04F220EA020085
:103DE00000EBD3705EEA430E08BF20EAD37070BDCB
:103DF00094F0000F0FD101F00046400041EB0101AB
:103E000011F4801F08BF013CF7D041EA060195F08C
:103E1000000F18BF704703F00046520043EB030346
:103E200013F4801F08BF013DF7D043EA0603704733
:103E300094EA0C0F0CEA135518BF95EA0C0F0CD03E
:103E400050EA410618BF52EA4306D1D181EA030184
:103E500001F000414FF0000070BD50EA410606BF7E
:103E60001046194652EA430619D094EA0C0F02D1C3
:103E700050EA013613D195EA0C0F05D152EA033608
:103E80001CBF104619460AD181EA030101F0004126
:103E900041F0FE4141F470014FF0000070BD41F06F
:103EA000FE4141F4780170BD70B54FF0FF0C4CF449
:103EB000E06C1CEA11541DBF1CEA135594EA0C0F68
:103EC00095EA0C0F00F0A7F8A4EB050481EA030EB5
:103ED00052EA03354FEA013100F088804FEA03339C
:103EE0004FF0805545EA131343EA12634FEA02226A
:103EF00045EA111545EA10654FEA00260EF000412B
:103F00009D4208BF964244F1FD0404F5407402D27C
:103F10005B084FEA3202B61A65EB03055B084FEA0D
:103F200032024FF480104FF4002CB6EB020E75EB0A
:103F3000030E22BFB61A754640EA0C005B084FEA32
:103F40003202B6EB020E75EB030E22BFB61A7546AF
:103F500040EA5C005B084FEA3202B6EB020E75EBFA
:103F6000030E22BFB61A754640EA9C005B084FEA72
:103F70003202B6EB020E75EB030E22BFB61A75467F
:103F800040EADC0055EA060E18D04FEA051545EA6E
:103F900016754FEA06164FEAC30343EA52734FEA17
:103FA000C2025FEA1C1CC0D111F4801F0BD141EA90
:103FB00000014FF000004FF0004CB6E711F4801FF5
:103FC00004BF01430020B4F1FD0C88BFBCF5E06FD5
:103FD0003FF6AFAEB5EB030C04BFB6EB020C5FEAE5
:103FE000500C50F1000041EB045170BD0EF0004E3A
:103FF0004EEA113114EB5C04C2BFD4EB0C0541EA6C
:10400000045170BD41F480114FF0000E013C90E668
:1040100045EA060E8DE60CEA135594EA0C0F08BF2C
:1040200095EA0C0F3FF43BAF94EA0C0F0AD150EA2B
:1040300001347FF434AF95EA0C0F7FF425AF1046BE
:1040400019462CE795EA0C0F06D152EA03353FF4E6
:10405000FDAE1046194622E750EA410618BF52EA63
:1040600043067FF4C5AE50EA41047FF40DAF52EA37
:1040700043057FF4EBAE12E708B5062000F0BEFE64
:104080000120FCF781FA000038B5054604480C46CB
:10409000134620B1022029462246AFF3008038BDE6
:1040A00000000000014B1868704700BF04020020A8
:1040B00008B5074B044613B10021AFF30080054B50
:1040C0001868836A03B198472046FCF75DFA00BF81
:1040D000000000005C5F00088A892DE9F041054678
:1040E00010070C4657D44B68002B02DC0B6C002BDE
:1040F00018DDE66AB6B102F48052002392B22F684E
:104100002B600AB1626D10E0216A28460123B04796
:10411000411C024609D12B683BB11D2B01D0162B47
:1041200047D12F600020BDE8F081A3895B0705D54A
:104130006368D21A636B0BB1236CD21AE66A216AE8
:1041400000232846B047461CA38905D12A681AB126
:104150001D2A01D0162A19D100226260D9042269D1
:10416000226004D5421C01D12B6803B96065616BE4
:104170002F600029D6D004F14403994202D028468A
:1041800000F034FA00206063BDE8F08143F04003A2
:10419000A381BDE8F0810F69002FC3D093070E689B
:1041A00008BF4B690F6018BF0023C7EB06088B6080
:1041B00012E0A38943F04003A3814FF0FF30BDE834
:1041C000F0812846216AA66A3A464346B04700284D
:1041D000EFDD0744C0EB0808B8F1000FF1DCA1E700
:1041E00038B50B6905460C46DBB118B183690BB9CC
:1041F00000F072F80C4B9C4201D16C6808E00B4B4C
:104200009C4201D1AC6803E0094B9C4208BFEC68BA
:10421000B4F90C302BB128462146BDE83840FFF7F1
:104220005BBF002038BD00BFF85E0008185F0008C3
:10423000385F0008014620B9044B0549186800F0B2
:10424000F5B8044B1868FFF7CBBF00BF5C5F0008F0
:10425000E141000804020020014900F0E7B800BF76
:10426000E1410008002310B5044603604360836009
:1042700081814366C28103614361836119465C3079
:10428000082200F0ABF9054B6362054BA362054BB6
:10429000E362054B2462236310BD00BF354E000866
:1042A000574E00088F4E0008B34E000870B56823C3
:1042B0004D1E5D430E4605F1740100F0DBF9044626
:1042C00040B1002180E842000C30A06005F1680296
:1042D00000F084F9204670BD836910B5044633BBF5
:1042E0008364C3640365124B124A1B68826298425E
:1042F00004BF0123836100F01FF86060204600F0D6
:104300001BF8A060204600F017F80421E0600022AE
:104310006068FFF7A7FFA06809210122FFF7A2FF4D
:10432000E06812210222FFF79DFF0123A36110BD67
:104330005C5F000859420008F8B51B4B1E68B36962
:10434000074613B93046FFF7C7FF4836B4687368AD
:10435000013B04D4B4F90C5075B16834F8E7336804
:104360002BB938460421FFF7A1FF306008B1366849
:10437000ECE70C233B60F8BD4FF6FF73E3810123AC
:10438000A38165662560A560656025616561A5619D
:1043900004F15C002946082200F020F96563A5635A
:1043A000A564E5642046F8BD5C5F00080EB403B563
:1043B000014603AB054853F8042B0068019300F055
:1043C000D7F902B05DF804EB03B070470402002097
:1043D00070B50E461446054618B183690BB9FFF750
:1043E0007BFF0A4B9C4201D16C6808E0084B9C4261
:1043F00001D1AC6803E0074B9C4208BFEC6828463B
:1044000031462246BDE8704000F076BCF85E0008F8
:10441000185F0008385F00080A4603490346086829
:104420001946FFF7D5BF00BF040200202DE9F8436D
:104430008046894600F14804002694B1A568676863
:10444000013F0CD4AB89012B07D9B5F90E300133EC
:1044500003D040462946C84706436835F0E724683C
:10446000EBE73046BDE8F8832DE9F843089C0D469C
:10447000904602FB03F9064618B183690BB9FFF7B2
:104480002BFF234B9C4201D1746808E0214B9C42D6
:1044900001D1B46803E0204B9C4208BFF468A389B3
:1044A0001A0703D523690BB1002720E030462146C7
:1044B00000F0B2FD0028F7D0002725E0A368013BFB
:1044C000002BA36019DAA269934213DB23682A78D0
:1044D0001A70236819780A2913D13046224600F051
:1044E00035FD431C5842584170B9013701354F45DD
:1044F000E4D109E030462978F0E723682A781A7079
:10450000236801332360F0E7B7FBF8F0BDE8F883D8
:10451000F85E0008185F0008385F000873B5009364
:10452000054B06460D461446186831462A46234672
:10453000FFF79AFF02B070BD0402002070B50E4B69
:104540000E4CE41AA41000251E46A54204D056F8CD
:10455000253098470135F8E701F014F8084C094B6D
:10456000E41AA41000251E46A54204D056F82530B2
:1045700098470135F8E770BD0802002008020020C6
:104580001002002008020020024B0146186800F0CB
:1045900071B800BF04020020024B0146186800F009
:1045A00025B800BF0402002010B5C9B202449042F1
:1045B000034606D01C788C4200F10100F7D1184662
:1045C00010BD002010BD10B5431E0A44914204D016
:1045D00011F8014B03F8014FF8E710BD0244034600
:1045E000934202D003F8011BFAE7704730B5002967
:1045F0003DD051F8042C0B1F1D49002AB8BF9B1851
:104600000A680C4612B95A600B6030BD93420DD255
:1046100019685818904201BF5A5852181A604268D7
:104620005A60236030BD994203D80A465168002978
:10463000F9D1146815199D420AD11B682344D0187A
:104640008842136013D10868034413604B680DE07F
:1046500002D90C23036030BD1C681819884204BFBE
:1046600008684968596004BF00191860536030BD7C
:10467000A408002070B5CC1C24F0030408340C2CD2
:1046800038BF0C24002C064603DA0C2333600020CC
:1046900070BD8C42F9D3204A136810461946A1B167
:1046A0000A68121B0ED40B2A03D90A608B188C508F
:1046B0001FE08B420DBF5A684A685A60026018BFFB
:1046C0000B4616E00B464968E9E7144D2B681BB909
:1046D000304600F04DFB28603046214600F048FB94
:1046E000421C0346D1D0C51C25F0030585420AD1E2
:1046F0001C6003F10B001A1D20F00700821A0AD07B
:104700005142995070BD3046E91A00F031FB01303A
:10471000BBD02B46ECE770BDA4080020A008002009
:104720009368013B002B10B5936009DA9469A342AA
:1047300002DBCBB20A2B03D1BDE8104000F006BC6F
:104740001368581C10601970C8B210BDF8B5064641
:104750000F461446D518AC4208D0304614F8011B59
:104760003A46FFF7DDFF431CF5D100E00020F8BD1D
:104770002DE9F0439DB00D4690460393064618B1CF
:1047800083690BB9FFF7A8FD754B9D4201D1756890
:1047900008E0744B9D4201D1B56803E0724B9D4225
:1047A00008BFF568AB891C070AD52B6943B1002304
:1047B000099320238DF8293030238DF82A3041E0E9
:1047C0003046294600F028FC0028F0D04FF0FF309A
:1047D000C2E0039A111D12680391002ABBBF524226
:1047E00043F0020307920792B8BF04930134237881
:1047F0002E2B7BD0DFF88081217840460322FFF703
:10480000D3FE38B1049AC8EB000040238340134321
:1048100004930134217855488DF82810062204F1BC
:104820000108FFF7C1FE002800F08580504B002BE7
:1048300078D1039B073323F0070308330393099BC5
:104840003B44099343461C4613F8012B1AB9B4EBB9
:1048500008090ED002E0252AF5D1F8E730462946AE
:1048600042464B46FFF772FF013070D0099B4B4424
:1048700009932378002B6AD000234FF0FF32049372
:104880000793059206938DF853301A9304F10108AB
:104890004446DFF8E890217848460522FFF784FE79
:1048A00008F10108049B30B1C9EB000001228240ED
:1048B00013430493ECE7D80644BF20228DF853201D
:1048C000190744BF2B228DF8532022782A2A80D042
:1048D000079923461C4601332278303A092A03D827
:1048E0000A2000FB0121F5E7079180E763782A2B76
:1048F0000AD1039B1A1D1B680392002BB8BF4FF00F
:10490000FF330234059375E7611C00220C46013128
:104910002378303B092B03D80A2000FB0232F5E74D
:10492000059267E703AB0093304604A92A46114B72
:10493000AFF3008007E003AB0093304604A92A469A
:104940000C4B00F0A1F8421C07467FF478AFAB890E
:104950005B063FF53BAF09981DB0BDE8F08300BF93
:10496000F85E0008185F0008385F00086A5F0008FA
:10497000000000004D470008665F0008605F000807
:1049800030B51346044A05460C46106829462246AF
:10499000BDE83040FFF7ECBE040200202DE9F843EB
:1049A00091461F468A680B69DDF820809342B8BFA4
:1049B0001346C9F8003091F8432006460C4612B160
:1049C0000133C9F800302368990642BFD9F8003096
:1049D0000233C9F80030256815F006051CD094F89C
:1049E00043302268003318BF012392061FD5E11817
:1049F0005A1C302081F84300224494F8451082F874
:104A00004310023313E03046394604F11902012302
:104A1000C047013007D00135E368D9F800209B1A60
:104A20009D42F0DBDBE74FF0FF30BDE8F883304616
:104A3000394604F14302C0470130F4D02268D9F866
:104A40000050E36802F00602042A08BF5D1B2269D9
:104A5000A3680CBF25EAE57500259342C4BF9B1AE5
:104A6000ED184FF00009A9450ADA3046394604F13D
:104A70001A020123C0470130D5D009F10109F2E73C
:104A80000020BDE8F88300002DE9FF410C461746E1
:104A9000227E6E2A984606460A9B01F1430100F0E9
:104AA000AF8012D8632A23D00AD8002A00F0BC8035
:104AB000582A40F0CB8084F84520DFF804E257E024
:104AC000642A1ED0692A1CD0C0E0732A00F0B0808E
:104AD00009D86F2A2ED0702A40F0B880226842F0A0
:104AE000200222603FE0752A24D0782A3BD0ADE036
:104AF0001A68111D1960136884F8423004F14205E8
:104B0000A8E020681A6810F0800F02D0101D18600D
:104B100008E010F0400F02F10400186002D0B2F972
:104B2000003000E01368002B3EDA2D225B4284F84F
:104B3000432039E020681A6810F0800F02D0101D61
:104B4000186007E010F0400F02F10400186001D077
:104B5000138800E01368227EDFF864E16F2A0CBF3F
:104B600008220A221CE07822DFF858E184F8452068
:104B70002268186812F0800F00F104051D6003D14F
:104B8000550601D5038800E00368D00744BF42F012
:104B9000200222601BB9226822F02002226010222B
:104BA000002084F8430002E0DFF814E10A2265687F
:104BB000A560002DA2BF206820F00400206003B98A
:104BC00065B10D46B3FBF2F002FB10331EF8033063
:104BD00005F8013D03460028F4D100E00D46082AFF
:104BE0000BD12368DA0708D5236962689A42DEBFD1
:104BF000302305F8013C05F1FF35491B21612EE00A
:104C000025681A68606915F0800F03D0151D1D60B6
:104C1000136808E015F0400F02F104051D601368E9
:104C200001D0188000E01860002323610D4616E0D3
:104C30001A68111D19601568626828460021FFF77F
:104C4000B3FC08B1401B6060636804E004F14205F6
:104C500084F8422001232361002384F84330CDF8F7
:104C600000803046214603AA3B46FFF797FE0130FD
:104C700002D14FF0FF301FE0304639462A46236903
:104C8000C0470130F5D023689B0705D4E068039B3B
:104C90009842B8BF18460FE00025E368039A9B1AB4
:104CA0009D42F3DA3046394604F119020123C04728
:104CB0000130DED00135F0E704B0BDE8F08100BF7F
:104CC000715F0008825F00080FB40A4B13B51C68BF
:104CD00024B1A36913B92046FFF7FEFA05AB2046BD
:104CE000A168049A0193FFF743FD02B0BDE81040AC
:104CF00004B070470402002070B50E461446054605
:104D000018B183690BB9FFF7E7FA164B9C4201D142
:104D10006C6808E0144B9C4201D1AC6803E0134B73
:104D20009C4208BFEC68A368013B002BA36011DA2A
:104D3000A269934207DB23681E70236819780A2949
:104D40000BD1284601E0284631462246BDE8704096
:104D500000F0FCB823681E7023685A1C2260187883
:104D600070BD00BFF85E0008185F0008385F0008DB
:104D700038B5064C0023054608462360FBF7F0FBD8
:104D8000431C02D1236803B12B6038BD0009002009
:104D9000EC46A0E8F05F4FF000007047B0E8F05F2D
:104DA000E546080008BF0120704700BF1F2938B53D
:104DB00004460D4604D9162303604FF0FF3038BD7A
:104DC000426C12B152F821304BB9204600F030F855
:104DD0002A4601462046BDE8384000F017B8012BAE
:104DE0000AD0591C03D116230360012038BD0024CA
:104DF00042F8254028469847002038BD024B01461E
:104E00001868FFF7D3BF00BF0402002038B5074C75
:104E10000023054608461146236000F0ABFB431C07
:104E200002D1236803B12B6038BD00BF0009002008
:104E300000F098BB10B50C46B1F90E1000F054FB11
:104E40000028ABBF636DA3891B1823F48053ACBF4C
:104E50006365A38110BD2DE9F0411D468B89DB05FB
:104E600007460C46164605D5B1F90E10002202235E
:104E700000F04EF9A389B4F90E1023F48053A381F6
:104E8000384632462B46BDE8F04100F0B3B810B5C5
:104E90000C46B1F90E1000F03BF9431CA38915BF75
:104EA000606523F4805343F48053A38118BFA3812A
:104EB00010BDB1F90E1000F01BB9034613F8012B19
:104EC000002AFBD1181A0138704770B5AAB1451EE7
:104ED00001396B7811F8014FA34205F1010606D1A3
:104EE0006FF00104641B1444E04202D11C46181BFD
:104EF00070BD3546002BECD1F8E7104670BD10B5FB
:104F00009AB04FF40274009104916FF00041029145
:104F100005914FF6FF71ADF80E106946ADF80C40E3
:104F200000F0F0F9009B00221A701AB010BD0000CA
:104F300030B51346044A05460C46106829462246F9
:104F4000BDE83040FFF7DBBF0402002070B50D461E
:104F50001446064618B183690BB9FFF7BDF9224B19
:104F60009C4201D1746808E0204B9C4201D1B46896
:104F700003E01F4B9C4208BFF468A369A360A389A8
:104F80001A0709D523693BB123682069181A636998
:104F90009842EDB20FDB08E03046214600F03CF8C5
:104FA0000028F1D04FF0FF3070BD30462146FFF7AA
:104FB00017F90028F6D1A368013BA36023685A1CA7
:104FC00022601D7063690130984204D0A389DB0719
:104FD00007D50A2D05D130462146FFF701F90028F3
:104FE000E0D1284670BD00BFF85E0008185F0008D9
:104FF000385F000838B5074C054600202060084699
:1050000011461A46FBF724FA431C02D1236803B168
:105010002B6038BD00090020314B70B51D68064675
:105020000C4625B1AB6913B92846FFF755F92D4B4E
:105030009C4201D16C6808E02B4B9C4201D1AC68CA
:1050400003E02A4B9C4208BFEC68A3899AB211077F
:105050001DD4D50602D40922326038E0500712D59B
:10506000616B41B104F14403994202D03046FFF72D
:10507000BDFA00236363A38923F02403A3810023E3
:10508000636023692360A38943F00803A381236934
:105090004BB9A38903F42073B3F5007F03D03046E6
:1050A000214600F047F8A38913F0010205D0002241
:1050B000A26062695242A26103E0990758BF626927
:1050C000A26022694AB903F0800080B230B143F097
:1050D0004003A3814FF0FF3070BD002070BD00BFC2
:1050E00004020020F85E0008185F0008385F00081E
:1050F00038B5064C0023054608462360FBF794F9B3
:10510000431C02D1236803B12B6038BD0009002085
:1051100038B5074C054600202060084611461A465F
:10512000FBF7F0F9431C02D1236803B12B6038BDB3
:1051300000090020F0B58B899D0791B006460C460A
:1051400026D4B1F90E10002909DAA38913F0800FD3
:105150004FF0000514BF40274FF480670DE001AA0F
:1051600000F0D4F90028F0DB029D05F47045A5F5A8
:1051700000514D424D414FF4806730463946FFF7AC
:1051800079FA60B9A3899A051DD443F00203A3817B
:1051900004F14703236023610123636113E00B4B98
:1051A000B362A389206043F08003A381206167611B
:1051B0004DB13046B4F90E1000F0BAF918B1A38918
:1051C00043F00103A38111B0F0BD00BF59420008B4
:1051D000814210B501EB020301D3421E0BE098425D
:1051E000FBD28118D21AD34204D013F8014D01F832
:1051F000014DF8E710BD994204D011F8014B02F8B7
:10520000014FF8E710BDF8B5074615460E4621B91F
:105210001146BDE8F840FFF72DBA1AB9FFF7E6F9D5
:105220002846F8BD00F094F9A8420ED23846294627
:10523000FFF720FA044650B131462A46FFF7C3F97A
:1052400038463146FFF7D2F901E03046F8BD204636
:10525000F8BD2DE9F0478E68B34282460C46904671
:10526000994640D38A8912F4906F3AD0256809692B
:105270006F1A6569022305EB450595FBF3F57B1C69
:105280004B449D4238BF1D4653050FD52946FFF7B5
:10529000F1F9064698B121693A46FFF794F9A389D6
:1052A00023F4906343F08003A38113E02A46FFF7C1
:1052B000AAFF064670B950462169FFF797F90C23FB
:1052C000CAF80030A38943F04003A3814FF0FF30B8
:1052D000BDE8F087266165613E44ED1B2660A56050
:1052E0004E46B14500D24E46324620684146FFF751
:1052F0006FFFA3689B1BA36023681E4426600020E9
:10530000BDE8F0872DE9F0439DB0064603938B89F5
:105310001C060D4690460CD50B6953B94021FFF78A
:10532000A9F92860286110B90C233360CCE0402330
:105330006B610023099320238DF8293030238DF8E9
:105340002A3043461C4613F8012B1AB9B4EB08095E
:105350000FD002E0252AF5D1F8E73046294642462B
:105360004B46FFF776FF013000F0A980099B4B44C4
:1053700009932378002B00F0A28000234FF0FF3226
:1053800004930793059206938DF853301A9304F112
:1053900001084446DFF84891217848460522FFF786
:1053A00003F908F10108049B30B1C9EB00000122A8
:1053B000824013430493ECE7D80644BF20228DF8C3
:1053C0005320190744BF2B228DF8532022782A2A14
:1053D00002D0079923460EE0039A111D126803912B
:1053E000002ABBBF524243F0020307920792B8BFA4
:1053F000049301340AE01C4601332278303A092A2A
:1054000003D80A2000FB0121F5E7079123782E2B12
:105410001AD163782A2B0AD1039B1A1D1B680392A9
:10542000002BB8BF4FF0FF33023405930CE0611C32
:1054300000220C4601312378303B092B03D80A2087
:1054400000FB0232F5E70592DFF8988021784046AC
:105450000322FFF7A9F838B1049AC8EB00004023F3
:10546000834013430493013421781A488DF828109F
:10547000062204F10108FFF797F888B1164B33B9FB
:10548000039B073323F007030833039313E003ABB5
:105490000093304604A92A46104BAFF3008007E082
:1054A00003AB0093304604A92A460C4BFFF7ECFAF5
:1054B000421C074603D0099B3B44099341E7AB8953
:1054C0005B0601D4099801E04FF0FF301DB0BDE844
:1054D000F08300BF6A5F000800000000535200081C
:1054E000605F0008665F000838B5074C054600207D
:1054F0002060084611461A46FAF7D0FF431C02D135
:10550000236803B12B6038BD0009002038B5074C73
:1055100000230546084611462360FBF705F8431CA7
:1055200002D1236803B12B6038BD00BF0009002001
:1055300038B5064C0023054608462360FAF7D0FF2D
:10554000431C02D1236803B12B6038BD0009002041
:1055500051F8040C0028BEBF091851F8043CC018CB
:1055600004387047024B58221A604FF0FF307047E2
:1055700000090020024B58221A604FF0FF3070479C
:1055800000090020F8B500BFF8BC08BC9E46704773
:10559000F8B500BFF8BC08BC9E4670476F626A2D24
:1055A0003E70696E20213D202850696E4E616D6508
:1055B000294E4300433A5C4A656E6B696E735C77B3
:1055C0006F726B73706163655C6D6265642D322D03
:1055D0006275696C642D6C6962726172795C2E62AD
:1055E00075696C645C6D6265645C544152474554F6
:1055F0005F4E55434C454F5F4634313152455C5404
:1056000041524745545F53544D5C544152474554B1
:105610005F53544D333246342F6770696F5F6F624A
:105620006A6563742E680000000000000102030434
:105630000102030406070809000000000000000042
:1056400001020304060708092573202564206275FA
:1056500066666572206F7665727772697465202858
:105660006D61785F6275665F73697A653A2025645B
:105670002065786365656465643A20256429210D99
:105680000A000000453A5C486F706550726F6A65A9
:1056900063745C6D696E6563726166745C686D638A
:1056A000353838336C456D756C61746F725C42755A
:1056B00066666572656453657269616C5C427566A5
:1056C000666572656453657269616C2E6370700003
:1056D0000000000000000000351B0008951B0008BA
:1056E000B51B0008D11B0008E91B0008051C0008B9
:1056F000311C00088D1C0008551D0008000000002A
:105700000000000000000000591A0008891A000873
:105710000000000000000000111A0008391A0008FB
:1057200057726F6E6720706172616D657465727318
:105730002076616C75653A2066696C65202573205A
:105740006F6E206C696E652025640D0A00000000F4
:10575000636C6F636B206572726F723A2025730DF4
:105760000A00000067726561746573745F696E6634
:105770006F2E73756974652E7072655F74657374CE
:105780000000000067726561746573745F696E661E
:105790006F2E73756974652E706F73745F746573A3
:1057A000740000002028256C75207469636B732CCD
:1057B00020252E3366207365632900000D0A000042
:1057C00000000000730000000D0A25752074657349
:1057D000742573202D202575207061737365642CEA
:1057E000202575206661696C65642C202575207301
:1057F0006B697070656400000D0A2A205375697426
:10580000652025733A0D0A006772656174657374CB
:105810005F696E666F2E73756974652E7072655F51
:1058200073756974650000006772656174657374EF
:105830005F696E666F2E73756974652E706F737411
:105840005F73756974650000504153532025733AA6
:10585000202573004641494C2025733A20257320AA
:105860002825733A257529004641494C2025733A6D
:10587000202573202825733A2575290D0A0000007C
:10588000534B49502025733A202573000D0A457863
:105890007065637465643A20000000000D0A2020E2
:1058A000202020476F743A200000000047524541F5
:1058B000544553545F4153534552545F45515541EC
:1058C0004C5F54206661696C757265206174202597
:1058D000733A25750D0A000055736167653A2025F6
:1058E00073205B2D686C66765D205B2D73205355AD
:1058F0004954455D205B2D7420544553545D0D0A79
:1059000020202D6820202020202020207072696E09
:105910007420746869732048656C700D0A20202D0E
:105920006C20202020202020204C69737420737567
:105930006974657320616E6420746865697220748F
:10594000657374732C207468656E20657869740DB6
:105950000A20202D66202020202020202053746F34
:10596000702072756E6E6572206166746572206655
:1059700069727374206661696C7572650D0A202006
:105980002D762020202020202020566572626F7303
:1059900065206F75747075740D0A20202D73205367
:1059A0005549544520206F6E6C792072756E2073B6
:1059B000756974657320636F6E7461696E696E6773
:1059C00020737472696E672053554954450D0A203F
:1059D000202D7420544553542020206F6E6C792064
:1059E00072756E20746573747320636F6E74616971
:1059F0006E696E6720737472696E672054455354E4
:105A00000D0A00002D7400002D7300002D660000AB
:105A10002D7600002D6C00002D6800002D2D00005B
:105A2000556E6B6E6F776E20617267756D656E7403
:105A300020272573270D0A00257300006772656112
:105A4000746573745F696E666F2E626567696E0058
:105A500054657374537569746563494D554F646F2C
:105A60006D657472790000006772656174657374A6
:105A70005F696E666F2E656E640000000D0A546FDC
:105A800074616C3A20257520746573742573000069
:105A90002C20257520617373657274696F6E257390
:105AA0000D0A0000506173733A2025752C20666141
:105AB000696C3A2025752C20736B69703A20257526
:105AC0002E0D0A00453A5C486F706550726F6A652A
:105AD00063745C6D696E6563726166745C686D6346
